:020000040800F2
:1000000058130020A1010008B5220008C71E0008EF
:100010000D220008B504000881300008000000002F
:100020000000000000000000000000008D28000813
:10003000FF0400080000000089260008D9280008F5
:10004000BB010008BB010008BB010008BB010008A0
:10005000BB010008BB010008BB010008BB01000890
:100060000105000807050008BB010008BB010008E6
:10007000BB010008B9040008BB010008C504000862
:10008000BB010008BB010008BB010008BB01000860
:10009000BB010008BB010008BB010008BB01000850
:1000A000BB010008BB010008BB010008BB01000840
:1000B000812900080000000000000000BB010008CA
:1000C000BB010008BB010008BB010008BB01000820
:1000D000BB010008712F0008BB010008F92F0008C0
:1000E000BB010008BB010008000000000000000088
:1000F0000000000000000000000000000000000000
:1001000000000000BB01000800000000BB01000867
:100110000000000000000000BB010008BB01000857
:10012000BB010008BB010008BB010008BB010008BF
:10013000BB010008000000000000000000000000FB
:10014000BB010008BB010008BB0100080000000063
:10015000BB010008BB0100087D1F0008BB010008AF
:10016000BB010008BB010008BB0100080000000043
:10017000BB010008BB0100080000000000000000F7
:10018000BB010008BB010008BB010008DFF80CD070
:1001900000F0B4F8004800475D3200085813002012
:1001A0000648804706480047FEE7FEE7FEE7FEE711
:1001B000FEE7FEE7FEE7FEE7FEE7FEE73D29000873
:1001C0008D0100082DE9F05F0546002092469B4610
:1001D00088460646814640241BE02846414647465D
:1001E000224600F07AF853465A46C01A914110D37D
:1001F00011461846224600F061F82D1A67EB0108F7
:100200004F4622460120002100F058F817EB000964
:100210004E41201EA4F10104DFDC484631462A4647
:10022000434600F000B830BCBDE8C09F10B5431A8B
:10023000934209D28318881803E010F8011D03F8CF
:10024000011D521EF9D210BD40EA01039B0703D0E5
:1002500009E008C9121F08C0042AFAD203E011F805
:10026000013B00F8013B521EF9D210BDD2B201E0B1
:1002700000F8012B491EFBD270470022F6E710B5AB
:1002800013460A4604461946FFF7F0FF204610BD04
:1002900030B50B46014600202022012409E021FA56
:1002A00002F59D4205D303FA02F5491B04FA02F553
:1002B0002844151EA2F10102F1DC30BD202A04DB26
:1002C000203A00FA02F1002070479140C2F1200369
:1002D00020FA03F3194390407047202A04DB203AA8
:1002E00021FA02F00021704721FA02F3D040C2F156
:1002F000200291400843194670470000064C074D04
:1003000006E0E06840F0010394E8070098471034E5
:10031000AC42F6D3FFF73EFF685100088851000851
:1003200010B5184C012812D0022819D0032820D06B
:10033000042825D114A002F0A5FE04206423E08047
:1003400018A14022BDE81040224801F061BD01F033
:10035000B3FF21A002F096FE0120E08024A105E079
:1003600026A002F08FFE0220E0802BA16423102241
:10037000E8E72CA002F086FE0320E0802FA1F5E73D
:1003800010BD0000000000200D0A50433A204154E7
:100390002B4E4D47532D2D2D2D2D2D2D2D2D0D0A51
:1003A0000000000041542B4E4D47533D31372C3057
:1003B0003031393939326634623463636336363604
:1003C0003637666666373238396233333266666688
:1003D000660D0A00200900200D0A50433A204154BE
:1003E0002B4347534E3D312D2D2D2D2D2D0D0A0024
:1003F00041542B4347534E3D310D0A000D0A5043E3
:100400003A2041542B43474154543F2D2D2D2D2D3F
:100410002D2D2D2D0D0A000041542B4347415454DE
:100420003F0D0A000D0A50433A2041542B435351CB
:100430002D2D2D2D2D2D2D2D2D0D0A0041542B430D
:1004400053510D0A0000000038B5174802F009FBAF
:10045000164CA0886423C0F30E021349144801F01F
:10046000D7FC0020A08001200090217A08230E4AAA
:10047000002002F0D0F820890830208102F022F814
:10048000E088012804D0022804D0032805D108E020
:10049000022000E00320FFF743FFBDE8384002F0F0
:1004A00011B80420F7E7000020040020000000201D
:1004B000A0080020FEE70000014800F076B8000028
:1004C000E8090020014800F070B80000A0090020F1
:1004D00030B590F8444004F01C050124AC40056C94
:1004E0006C60046863608368102B036803D09960B4
:1004F0000068C26030BD9A600068C16030BD70475E
:10050000042000F06BB9082000F068B9704710B5FE
:1005100090F825100022022905D00421C16380F83B
:100520002420012010BD01680B6823F00E030B602E
:1005300001680B6823F001030B6090F84410046C11
:1005400001F01C03012101FA03F3636080F8251018
:1005500080F82420104610BD10B590F82510002416
:10056000022903D00421C16301241AE001680A684A
:1005700022F00E020A6001680A6822F001020A6095
:1005800090F84410036C01F01C02012101FA02F200
:100590005A6080F82510002180F82410816B01B189
:1005A0008847204610BDC06B7047F0B4016C0C68E2
:1005B00001680D6890F8442002F01C06042202FA3B
:1005C00006F3234211D06B070FD50B689B0603D4AB
:1005D0000B6823F004030B6090F8441001F01C0139
:1005E0008A40016C4A60016B1DE0022303FA06F7A2
:1005F00027424FF0000C4FF0010218D0AF0716D57C
:100600000C68A40605D40C6824F00A040C6080F879
:10061000252090F8441001F01C018B40016C4B60C8
:1006200080F824C0C16A00291AD0F0BC084708230A
:10063000B340234214D02B0712D50B6823F00E03CE
:100640000B6090F84410036C01F01C0102FA01F1F8
:100650005960C26380F8252080F824C0416BE2E72E
:10066000F0BC704770B568B12B4C036814212B4A5D
:10067000A34209D22A4C1C44B4FBF1F18900C0E921
:1006800010210BE0012070BD234C64421C44B4FBDC
:10069000F1F189004164204908390164022180F8A0
:1006A00025101C6847F6F0718C43D0E902152943E8
:1006B000D0E904563543294385692943C56929434F
:1006C000056A2943214319608168B1F5804F19D02B
:1006D000036C0F21934202D152F8A83F02E00E4A68
:1006E000A032136890F8444004F01C04A1408B43EE
:1006F000136090F84430416803F01C03994013687C
:10070000194311600021C163012280F8252080F87F
:100710002410084670BD000008040240000002409A
:10072000F8FFFDBF70B5044690F8240000250128AD
:100730000CD0012084F8240094F825600020012EBC
:1007400006D084F824000225284670BD022070BD22
:10075000022684F82560E0632068066826F001061A
:1007600006602046FFF7B4FE206B00282068016871
:1007700002D041F00E0106E021F004010160206882
:10078000016841F00A0101602068016841F001013F
:100790000160D9E770B5044600F0F8F80546601C22
:1007A00002D004484068044400F0F0F8401BA04226
:1007B000FAD370BD0C00002010B5042808D008281A
:1007C0000AD101F079FD0320BDE81040FFF7A8BD74
:1007D00001F072FD0120F7E710BD0000044910B5DB
:1007E0000A68024202D00860FFF7E6FF10BD000071
:1007F000140401402DE9F84FDFF864B100234FF0F5
:10080000010C4FF0030A4FF00F090BF1040EA0E0AA
:100810000CFA03F6324072D04C68022C01D0122C34
:100820000ED1DC0800EB8408D8F820405D07EF0EFD
:1008300009FA07F5AC430D69BD402543C8F82050BF
:1008400007685D0091F804800AFA05F408F00308CF
:10085000A74308FA05F848EA0708C0F800804F687F
:10086000012F05D0022F03D0112F01D0122F11D14B
:100870008768D1F80C80A74308FA05F848EA07080A
:10088000C0F808804768B7430E79C6F300169E404B
:100890003E434660C668A6438C68AC403443C4609F
:1008A0004C68E40054D52F4C256E45F001052566B3
:1008B000246E23F0030504F0010400942A4C2E1941
:1008C000B4689D072F0F09FA07F5AC43B0F1904FBC
:1008D00004D0264DA84203D1012512E0002510E0E6
:1008E000234DA84201D102250BE0224DA84201D19F
:1008F000032506E0204DA84202D1042501E027E0AF
:100900000725BD402543B560DBF800405D464E68D5
:100910009443F60300D514432C60DEF8004075467E
:100920004E689443B60300D514432C600C4D083533
:100930002C684E689443F60200D514432C60084D91
:100940000C352C684E689443B60200D514432C60D5
:100950005B1C0A6832FA03F47FF45AAF00F00EB859
:100960000004014000100240000001400004004863
:1009700000080048000C00480010004818BCBDE802
:10098000E08F0AB1816170478162704701488068D9
:10099000704700000C000020024881684268114442
:1009A000816070470C00002010B50024032000F087
:1009B00073F8002000F008F808B1012401E000F00D
:1009C00025F8204610BD000070B50E4E05460024E7
:1009D000706898B14FF47A71B1FBF0F00A49096878
:1009E000B1FBF0F000F024FE40B9102D06D2002239
:1009F0002946501E00F030F8356000E00124204602
:100A000070BD00000C000020180000200A4882B0D1
:100A1000016E41F001010166016E01F001010091DA
:100A2000816D41F080518165806D00F080500090B3
:100A3000052002B000F030B800100240002809DBA9
:100A400000F01F02012191404009800000F1E020E8
:100A5000C0F8001170470000F0B40E4B1B680C4644
:100A6000C3F30223C3F10705042D00D90425191D82
:100A7000072901D2002300E0DB1E012606FA05F15A
:100A8000491E214099409E40761E16403143F0BCDD
:100A900002F008BB0CED00E0064900F00702086810
:100AA0004FF6FF03184040EA0220034A1043086053
:100AB000704700000CED00E00000FA051649B0F5A3
:100AC000007F0868C0F3412009D0022805D00868DB
:100AD00020F4C06040F48060086000207047012866
:100AE000FBD0086820F4C06040F4007008600B4838
:100AF0003222006850430A4AB0FBF2F0401C00E08A
:100B0000401E4A69520501D50028F9D148694005BF
:100B1000E3D503207047000000700040180000205B
:100B200040420F000248006800F4C06070470000B7
:100B3000007000402DE9F84F044600270088A84DBA
:100B40003E46000515D5606C60B1B0F5000F04D0CD
:100B5000B0F5400F2BD001270AE0E86840F4803060
:100B6000E86024E00021201D01F090FD07001ED068
:100B70003E46206880033AD5A86D4FF00008C000BB
:100B800009D4A86D40F08050A865A86D4FF0010809
:100B900000F080500090DFF84CA2DAF8001041F429
:100BA0008071CAF80010FFF7F1FE814610E0D5F819
:100BB0008800616C20F440000843C5F88800D8E73D
:100BC000FFF7E4FEA0EB0900022801D9032705E0A6
:100BD000DAF80000C005F3D5002F7DD04FEA0706F4
:100BE000B8F1000F03D0A86D20F08050A8652078E0
:100BF000C00707D0D5F88800216A20F00300084319
:100C0000C5F888002078800707D5D5F88800616A84
:100C100020F00C000843C5F888002078400707D56D
:100C2000D5F88800A16A20F030000843C5F8880094
:100C30002078800607D5D5F88800E16A20F4406066
:100C40000843C5F888002088800507D5D5F88800B6
:100C5000E16B20F440200843C5F888002088400557
:100C600007D5D5F88800216C20F440100843C5F85A
:100C700088002078400607D5D5F88800216B20F43D
:100C800040500843C5F888002078000607D5D5F8FD
:100C90008800616B20F440400843C5F88800208834
:100CA000C00507D5D5F88800A16B20F44030084373
:100CB000C5F8880020684FF0006700034FF0806897
:100CC00050D5D5F88800A16C20F040600843C5F8E5
:100CD0008800A06CB84200E005E03BD1E86840F431
:100CE0008010E8603EE0D5F8900010F4407014D019
:100CF000A16D814211D0D5F89000D5F8901020F464
:100D0000407041F48031C5F89010D5F8901021F46E
:100D10008031C5F89010C5F89000C00711D0FFF7DA
:100D200035FE074641F2883907E000BFFFF72EFE87
:100D3000C11B494501D9032652E7D5F89000800729
:100D4000F4D5D5F89000A16D20F440700843C5F8A3
:100D5000900045E7404505D10121201D01F096FC9A
:100D600000B106462068400317D5D5F88800E16C2D
:100D700020F040600843C5F88800E06CB84204D118
:100D8000E86840F48010E86007E0404505D10121A3
:100D9000201D01F07BFC00B106462088400411D5DF
:100DA000D5F88800216D20F040500843C5F8880030
:100DB000206DB0F1805F05D10221201D01F066FC9D
:100DC00000B106462088000406D555F8880F616DED
:100DD00020F0804008432860304600F005B800004D
:100DE000001002400070004018BCBDE8E08F000019
:100DF0002DE9F0470F46050058D0404E306800F00E
:100E00000700B84209D2306820F00700384330604C
:100E1000306800F00700B84248D12878384CC00745
:100E20002CD06868032811D0022812D0216898B10C
:100E3000490500293ADAA16821F003010143A160C4
:100E4000FFF7A4FD804641F2883910E0216889014E
:100E5000EFE721688903ECE78907EAE7FFF796FDEA
:100E6000A0EB0801494502D90320BDE8F087A0683E
:100E7000696800F00C00B0EB810FEFD12878800793
:100E800005D5A068A96820F0F0000843A06030688C
:100E900000F00700B8420BD9306820F00700384353
:100EA0003060306800F00700B84201D00120DCE774
:100EB0002878400705D5A068E96820F4E060084379
:100EC000A0602878000706D5A068296920F4605042
:100ED00040EAC100A06000F03FF8A168094AC1F3F0
:100EE0000311515C01F01F01C84007490860074821
:100EF0000068BDE8F047FFF767BD00000020024032
:100F00000010024010330008180000200C000020E0
:100F10000548064900688968054AC1F30221515C09
:100F200001F01F01C8407047180000200010024067
:100F3000503300080548064900688968054AC1F32E
:100F4000C221515C01F01F01C84070471800002009
:100F5000001002405033000870B5254900231846A0
:100F60008A68CC6812F00C0204F00306214C4FEAA8
:100F7000640509D00C2A05D0042A32D0082A00D1F1
:100F8000284670BD012E10D10B681B0704D4D1F880
:100F90009430C3F3032302E00B68C3F30313164E2C
:100FA00056F82330DAB10C2AEBD1C86800F0030000
:100FB000022818D0032818D01846CA68CB68C2F394
:100FC0000212C3F306234343521CB3FBF2F2C86878
:100FD000C0F34160401C4000B2FBF0F070BD184609
:100FE00070BD204670BD2046E7E72846E5E70000D3
:100FF000001002400024F400203300082DE9F843DB
:1010000004006ED0FD4DA86800F00C06E86800F002
:1010100003072078C00663D576B10C2E01D1012FCD
:101020000AD0A0690028286878D040F00100286024
:10103000FFF7ACFC80465BE02868800702D5A0691A
:101040000028DED0216A2868000703D5286800F050
:10105000F00004E0D5F89400F02202EA101081427A
:1010600016D9084601F0A8FB00283AD1286840F0BC
:10107000080028602868216A20F0F00008432860F2
:101080006868E16920F47F4040EA0120686015E06B
:10109000286840F0080028602868216A20F0F000E5
:1010A000084328606868E16920F47F4040EA012035
:1010B0006860206A01F080FB0028D6D1FFF74CFF62
:1010C000A968CF4AC1F30311515C01F01F01C84068
:1010D000CC490860CC480068FFF776FC00287DD139
:1010E0002DE0C9E0FFF752FCA0EB0800022876D8FB
:1010F00028688007F6D5286840F00800286028682E
:10110000216A20F0F000084328606868E16920F453
:101110007F4040EA0120686011E0FFE720F0010015
:101120002860FFF733FC804606E000BFFFF72EFC87
:10113000A0EB08000228DAD828688007F6D42078C7
:10114000C00740D0082E18D00C2E01D1032F14D088
:101150006068B0F5803F17D0B0F5A02F286817D091
:1011600020F480302860286820F48020286060689F
:10117000E0B1FFF70BFC804614E02868800322D51D
:101180006068002878D01EE0286840F48030EDE7E1
:1011900040F480202860F7E7FFF7F8FBA0EB080099
:1011A0006428A4D828688003F6D50CE0FFF7EEFB8E
:1011B000804605E0FFF7EAFBA0EB0800642896D81C
:1011C00028688003F6D4207880073BD5042E11D000
:1011D0000C2E01D1022F0DD0E06801E064E1B8E0EF
:1011E000002828681ED040F480702860FFF7CEFBEE
:1011F00007460CE0286840050CD5E0680028C1D0FF
:1012000008E000BFFFF7C2FBC01B022893D8286884
:101210004005F7D56868217C20F0F85040EA01606D
:1012200068600FE020F480702860FFF7AFFB07468E
:1012300005E000BFFFF7AAFBC01B0228B1D8286851
:101240004005F7D42078000729D560690028D5F833
:10125000940012D040F00100C5F89400FFF796FB0F
:10126000074604E0FFF792FBC01B022871D8D5F8AF
:1012700094008007F6D512E04CE120F00100C5F89B
:101280009400FFF783FB074605E000BFFFF77EFBF6
:10129000C01B02285DD8D5F894008007F6D42078CA
:1012A000400766D5A86D0027C00008D4A86D40F09F
:1012B0008050A865A86D012700F080500090534829
:1012C0000168C90512D40168814641F4807101604A
:1012D000FFF75CFB804605E0FFF758FBA0EB08003A
:1012E000022836D8D9F80000C005F5D5A068012835
:1012F00016D00528D5F8900017D020F00100C5F8C9
:101300009000D5F8900020F0040000BFC5F89000D0
:10131000A06841F28839C0B1FFF738FB80460FE082
:10132000D5F8900040F00100F0E740F00400C5F867
:101330009000F5E7FFF72AFBA0EB0801494508D824
:10134000D5F890008007F5D50EE0FFF71FFB80462B
:1013500006E07CE0FFF71AFBA0EB0801494576D8D0
:10136000D5F890008007F5D41FB1A86D20F080500B
:10137000A8652078800628D5606A0028D5F89800EE
:1013800012D040F00100C5F89800FFF7FFFA0746B9
:1013900005E000BFFFF7FAFAC01B022857D8D5F8BE
:1013A00098008007F6D510E020F00100C5F89800FD
:1013B000FFF7ECFA074604E0FFF7E8FAC01B022843
:1013C00071D8D5F898008007F6D4A06AF0B30C2E37
:1013D00071D00228286820F0807028601AD0286810
:1013E000000103D4E86820F00300E860E8680849D9
:1013F0000840E860FFF7CAFA044657E000100240D0
:1014000010330008180000200C000020007000407D
:10141000FFFFEEFEFFF7BAFA064604E0FFF7B6FA62
:10142000801B02283FD828688001F7D4F4E90B011B
:101430006FF00F0202EB01110843218A49085204A0
:1014400002EB4151A26841EA022101E064E02AE096
:101450000843217D4FF07E42490802EB4161084379
:10146000217B40EAC160E9682C4A11400843E860EA
:10147000286840F080702860E86840F08070E8607C
:10148000FFF784FA044604E0FFF780FA001B022805
:1014900009D828688001F7D53EE000BFFFF776FA4B
:1014A000001B022802D90320BDE8F88328688001C8
:1014B000F4D431E0FFE70128F6D0E868E26A00F0F2
:1014C0000301914226D1216B00F07002090110390D
:1014D00091421FD1626B00F4FE41B1EB022F19D192
:1014E00094F8382000F07841B1EBC26F12D1A18F8F
:1014F00000F4C00249084905A1F50011914209D143
:1015000094F8401000F0C06049084906A1F100714C
:10151000814201D00120C7E70020C5E78C809D01F2
:101520002DE9F041040005D00025A56294F85D0086
:1015300018B107E00120BDE8F08184F85C50204636
:1015400000F044F8022384F85D302068016821F03F
:1015500040010160E0684FF4E066B04201D900212B
:1015600001E04FF48051B0F5706F02D0B04200D06E
:10157000A562276B012227B9B04201D9236300E09D
:101580002263D4E901031843D4E9043633431843F2
:10159000238B03F400731843E3691843236A184349
:1015A000A36A184323681860636B606AA6691843CE
:1015B0000427E36807EA16463343184308432168C3
:1015C0004860256684F85D200020B4E710B586B039
:1015D000044614216846FEF750FE134920688842ED
:1015E0001FD11248016E41F480510166016E01F471
:1015F00080510591C16C41F00101C164C06C694624
:1016000000F001000590C22000900220019000200F
:10161000029003200390052004904FF09040FFF7C4
:10162000E9F806B010BD0000003001400010024093
:1016300010B5401EB0F1807F01D3012010BD4FF0E6
:10164000E02460610F21601701F02CFD0020A061F3
:1016500007202061002010BD7047704770470000D0
:1016600070B590F83C20012A21D0012480F83C403C
:10167000022280F83D2003685A689D680D4EB342EF
:1016800003D122F470064A68324322F070060A68D9
:101690008968324325F0800529435A6002689160C9
:1016A00080F83D40002180F83C10084670BD0220C3
:1016B00070BD0000002C014010B5040003D094F868
:1016C0003D0010B107E0012010BD002084F83C006F
:1016D000204600F00DF8022084F83D00211D20680E
:1016E00001F054F9012084F83D00002010BD0000F5
:1016F00008B50068B0F1804F12D10A48816D41F001
:1017000001018165806D002200F00100009011460A
:101710001C20FFF7A1F9BDE808401C20FFF78EB997
:1017200008BD0000001002400168CA6842F00102D2
:10173000CA6001688868064A1040062806D0B0F5DD
:10174000803F03D0086840F0010008600020704727
:101750000700010070B5044690F83C00012817D03E
:10176000012584F83C50022084F83D0022689068EE
:101770002E4B184020F47F4090600868502830D0ED
:101780000DDC20284DD005DC98B310283BD148E073
:10179000022070BD302844D0402834D139E0602880
:1017A00028D0702806D0B0F5805F2CD0B0F5005F4F
:1017B00029D10AE0CB68D1E90121206801F01CF9A8
:1017C0002068816841F0770109E0CB68D1E9012107
:1017D000206801F011F92068816841F4804181603E
:1017E00011E0CA684968206801F018F950212068A2
:1017F00007E016E0CA684968206801F020F9602116
:10180000206801F003F984F83D50002084F83C0082
:1018100070BDCA684968206801F000F9402120685D
:10182000EFE7226801461046EBE7000088FFFEFF65
:10183000704770B50446006801694FF00005C94360
:10184000890715D4C168C943890711D4E91E01610C
:1018500001202077206880698007204602D0FFF7AA
:10186000E7FF04E000F0A7F8204600F0A5F8257790
:1018700020680169C943490717D4C168C9434907AA
:1018800013D46FF004010161022020772068806981
:1018900010F4407F204602D0FFF7CAFF04E000F0BA
:1018A0008AF8204600F088F8257720680169C94346
:1018B000090716D4C168C943090712D46FF008019B
:1018C0000161042020772068C0698007204602D08B
:1018D000FFF7AEFF04E000F06EF8204600F06CF871
:1018E000257720680169C943C90617D4C168C9436F
:1018F000C90613D46FF01001016108202077206819
:10190000C06910F4407F204602D0FFF791FF04E049
:1019100000F051F8204600F04FF825772068016963
:10192000C943C90708D1C168C943C90704D1891E81
:101930000161204600F041F820680169C9430906A9
:1019400009D4C168C943090605D46FF0800101615B
:101950002046FFF782FE20680169C943C90509D402
:10196000C168C943090605D46FF48071016120463E
:10197000FFF772FE20680169C943490609D4C168AE
:10198000C943490605D46FF040010161204600F0CB
:101990001CF820680169C94389060BD4C168C94392
:1019A000890607D46FF0200101612046BDE8704030
:1019B000FFF754BE70BD7047704710B500F07CFC57
:1019C000BDE810400120FEF7ABBC7047704770B512
:1019D000416F0446856F006882684FF0100612065A
:1019E00012D5212910D1816821F080018160A06E7B
:1019F00038B1FEF78CFD20B1A06EFEF7D4FD202893
:101A00001BD0204601F051F920688168490612D5A3
:101A1000222D10D1816821F040018160E06E38B143
:101A2000FEF775FD20B1E06EFEF7BDFD202804D065
:101A3000204601F02BF9002070BDE667032070BD41
:101A4000704700002DE9F04102680446D069116832
:101A5000936810F00F0F4FF000055BD003F0010604
:101A600001F49077374369D0C70707D0CF0505D574
:101A700001271762E26F42F00102E267820708D590
:101A8000DA0706D0276802223A62E26F42F00402C7
:101A9000E267420708D5DA0706D0236804221A62F3
:101AA000E26F42F00202E26702070AD501F020026B
:101AB000324306D0236808221A62E26F42F008021D
:101AC000E267E26F002A32D0800605D5880603D58A
:101AD000216E09B120468847E06F21688968490670
:101AE00001D4000725D5204601F0D0F82068816890
:101AF000490619D5816821F040018160E06E98B1F6
:101B000020498163E06EFEF727FD00280FD0E06ECC
:101B1000816B06E0860611D58E060FD5216E1EE07C
:101B20002046BDE8F04108472046FFF789FFBDE8A1
:101B3000F0812046FFF784FFE567F8E7C60209D584
:101B40005B0207D54FF4801010622046BDE8F041DB
:101B5000FFF73CBF030605D50B0603D5616E0029D0
:101B6000DED1E4E74006E2D54806E0D5116820461C
:101B700021F04001116020216167656600F0A2F943
:101B8000D5E70000EB2B000810B5040002D0606F11
:101B900010B107E0012010BD002084F8700020463D
:101BA00000F026F8242060672068016821F0010118
:101BB0000160204601F082F80128ECD0606A10B183
:101BC000204600F082FF2068416821F49041416086
:101BD0002068816821F02A0181602068016841F055
:101BE000010101602046BDE8104000F0D2BF0000B6
:101BF0002DE9F04186B0064614216846FEF73DFB0C
:101C0000544A37680024544903200225534B974215
:101C100020D1CA6D42F00102CA65CA6D02F001020C
:101C20000592CA6C42F00402CA64C96CCDE9000591
:101C3000CDE9024001F004010820CDE90401694624
:101C40001846FEF7D7FD002211464620FEF704FF96
:101C500046203DE0DFF808C107224FF080086745C5
:101C60003BD10B6E43F480430B660B6E03F4804351
:101C70000593CB6C43F00103CB64C96C029401F073
:101C8000010105914FF4C061CDE90015CDE90302D2
:101C900069464FF09040FEF7ADFD334F3148386054
:101CA000C7E90154C7E903487C614FF40050BC61A7
:101CB000C7E907403846FEF7D5FC08B1FEF726FC19
:101CC000F766002202212520BE62FEF7C5FE252010
:101CD000FEF7B4FE06B0BDE8F081DFF890C06745BE
:101CE000F8D18F6D47F480278F658F6D07F48027BB
:101CF0000597CF6C47F00407CF64C96C049201F0DC
:101D0000040105913021CDE900150121CDE9021032
:101D100069461846FEF76EFD134F124848372838BB
:101D20003860C7E90154C7E903487C618014BC618D
:101D3000C7E907403846FEF795FC08B1FEF7E6FB19
:101D4000F766002201212720BE62FEF785FE2720CC
:101D5000BEE700000080004000100240000800487C
:101D60000038014058000240A0090020004800400F
:101D700070B50446806F20283FD149B342B394F830
:101D80007000012839D0012084F870006165A4F842
:101D900058200025E5672220A067E06ED0B11849E1
:101DA000C162E16E174813460863E16E1648486346
:101DB000E06E8563666D216832462431E06EFEF781
:101DC000B1FC38B11020E06784F8705020206067C3
:101DD000012070BD84F870502068016841F4807162
:101DE00001602068816841F001018160206881689C
:101DF00041F040018160002070BD022070BD0000F4
:101E0000472C0008832C0008FF2B00087047704700
:101E10002DE9F8430446406F1F4616460D4620281C
:101E20004ED1CDB1C6B194F87000012848D0012040
:101E300084F870004FF00008C4F87C8021206067AF
:101E4000FEF7A4FDA4F850608146A4F85260A06893
:101E5000B0F5805F03D004E00120BDE8F88320697D
:101E600010B12E46002510E000260EE0802120460D
:101E700001F04EF8B8B9C6B116F8010B2168088513
:101E8000B4F85200401EA4F85200B4F852004B4679
:101E90004FF0000200970028E8D14FF040012046A3
:101EA00001F036F830B10320D7E735F8020BC0F364
:101EB0000800E3E72020606784F870800020CCE70A
:101EC0000220CAE77047FEE710B50E4C01228021C0
:101ED0002046FEF756FD012240212046FEF751FD27
:101EE00000F046F8002280212046FEF74AFD00F06F
:101EF0003FF8002240212046FEF743FDBDE8104098
:101F000000F036B80004004810B50A4C00228021C9
:101F10002046FEF736FD012240212046FEF731FD26
:101F200000F026F820460122BDE810408021FEF78F
:101F300028BD00000004004810B50C4C012280218F
:101F40002046FEF71EFD00F013F801224021204636
:101F5000FEF717FD00F00CF8002240212046FEF7A6
:101F600010FDBDE8104000F003B800000004004878
:101F70000320401EC0B2FCD2704700000148FFF7AA
:101F800061BD0000200800200D4808B5816C41F0BB
:101F900001018164806C002200F001000090114674
:101FA0000D20FEF759FD0D20FEF748FD00221146D9
:101FB0000F20FEF751FDBDE808400F20FEF73EBDA3
:101FC00000100240F0B587B014216846FEF755F9BD
:101FD0002E48C16C41F00401C164C16C01F00401E0
:101FE0000591C16C41F08001C164C16C01F08001B8
:101FF0000591C16C41F00101C164C16C01F00101A6
:102000000591C16C41F00201C164C06C204E00F02A
:1020100002004FF400540590002221463046FEF79E
:10202000B0FC1C4F0022C0213846FEF7AAFC012557
:10203000CDE9004500240294694630460394FEF73A
:10204000D9FB0C2000901448CDE9010569463846BB
:10205000FEF7D0FBC0200090CDE901546946384618
:102060000394FEF7C7FB002211460820FEF7F4FC9C
:102070000820FEF7E3FC002211460920FEF7ECFCE5
:102080000920FEF7DBFC07B0F0BD000000100240A5
:102090000008004800040048000021100D4810B559
:1020A0000B4901604FF416514160002181600C2200
:1020B000C160C0E90412816101624162FFF764FD01
:1020C000002803D0BDE81040FEF720BA10BD000084
:1020D0000080004020080020124810B5104901601F
:1020E0004FF48271416000214FF44072C0E9021246
:1020F0004FF400720161C0E90512C161016207225B
:102100004162C0E90A12016308214163FFF708FA3E
:10211000002803D0BDE81040FEF7F8B910BD00005C
:1021200000300140300A002010B588B00024174864
:102130000094019402940394049405944FF0804118
:102140000694016040F2CF71C0E901141049C0E962
:1021500003148461FFF7B0FA08B1FEF7D7F94FF422
:102160008050009069460948FFF7F4FA08B1FEF77D
:10217000CDF9049404A905480694FFF771FA0028E4
:1021800001D0FEF7C3F908B010BD0000940A00208A
:102190007FA903000D4810B50B4901604FF4E131F0
:1021A0004160002181600C22C160C0E9041281619C
:1021B000C16101624162FFF7E7FC002803D0BDE87E
:1021C0001040FEF7A3B910BD00380140A008002060
:1021D0000D4810B50B4901604FF4165141600021C4
:1021E00081600C22C160C0E904128161C161016299
:1021F0004162FFF7C9FC002803D0BDE81040FEF79C
:1022000085B910BD0048004020090020FEE700000D
:1022100070B5114C6088C0F30E0110A000F032FFC1
:10222000164D21882878884204D0BDE8704014A05B
:1022300000F028BF19A000F025FF6878052809DA0A
:10224000012807D0022805D0032803D1BDE870403B
:1022500000F0F0BA70BD00000000002050433A20AA
:102260004D4F44425553204845582C204C454E472D
:1022700054483A202575200D0A0000002000002057
:1022800050433A204944206973206E6F7420636F75
:1022900072726563742E0D0A0000000050433A20EC
:1022A000494420697320636F72726563742E0D0A4E
:1022B000000000007047000010B500F009F8034965
:1022C00000200881BDE8104000F0FCB800000020AC
:1022D00030B40021084B0A465FF0000003EBC00455
:1022E000401CC0B262548028F8D3491CC9B20829E6
:1022F000F2D330BC00F0E6B8D40A002030B5CC08E8
:1023000001F0070301259D40EBB2064D05EBC0052A
:10231000C808285C0AB1184302E063EA0000C04321
:10232000285530BDD40A002070B5634886B0C16C12
:1023300041F00101C164C16C01F001010591C16C62
:1023400041F00401C164C16C01F004010591C16C4C
:1023500041F00801C164C06C01AA00F008000590BA
:10236000A020009011200124022582E831004FF0C6
:10237000904669463046FEF73DFA0122A0213046DC
:10238000FEF7FFFA2003CDE9000469464B48CDE98A
:102390000245FEF72FFA0420CDE90004CDE90245FD
:1023A000474C69462046FEF725FA012204212046C3
:1023B000FEF7E7FA002204212046FEF7E2FAC820E1
:1023C000FEF7E8F9012204212046FEF7DAFA00219F
:1023D000AE2000F03EF90021084600F03AF9002155
:1023E000102000F036F90021402000F032F90021E1
:1023F000812000F02EF90021CF2000F02AF90021E1
:10240000A12000F026F90021C82000F022F90021C7
:10241000A62000F01EF90021A82000F01AF90021E2
:102420003F2000F016F90021D32000F012F900211E
:10243000084600F00EF90021D52000F00AF900212D
:10244000802000F006F90021D92000F002F90021D7
:10245000F12000F0FEF80021DA2000F0FAF8002167
:10246000122000F0F6F80021DB2000F0F2F8002145
:10247000402000F0EEF80021202000F0EAF80021D2
:10248000022000F0E6F800218D2000F0E2F80021A3
:10249000142000F0DEF80021A42000F0DAF800217A
:1024A000A62000F0D6F8FFF713FF0021AF2000F0C0
:1024B000D0F806B070BD00000010024000080048CF
:1024C000000C004870B5184E002400BF04F1B000A5
:1024D000C0B2002100F0BDF80021084600F0B9F8B4
:1024E0000021102000F0B5F8FFF7EEFC782000F096
:1024F000CFF9FFF721FD402000F0CAF9FFF71CFDDE
:102500005FF0000506EBC500005D00F0C1F9FFF7C4
:1025100013FD6D1CEDB2802DF4D3FFF7F5FC641CA8
:10252000E4B2082CD2D370BDD40A00202DE9FC4FB0
:102530001C460E4682468B460190082B0ED0600743
:1025400000D0012000EBD400610810FB01F0C0B204
:102550008146203AD0B2009000204AE00620F7E7FA
:10256000082C12D00C2C17D0102C1AD0182C43D1B8
:102570000098234900EBC00001EB8001002711F80F
:102580000850E80712D00B9A13E000981D4900EBA1
:10259000400001EB4001F1E700981B4900EB4000CF
:1025A000EAE71A49009801EB0011E7E70B9828B316
:1025B000002231465046FFF7A1FE761C7F1C6D08B5
:1025C000FFB2F6B2082FDCD30AF1010000F0FF0AD7
:1025D000082C0AD00199AAEB0100B0EB540F04D1EA
:1025E0000BF108008A4600F0FF0B08F101005E467F
:1025F000C0B280464845B3D300F00AB80122D8E7FC
:10260000E43F00085833000880350008F43900081A
:102610001CBCBDE8E08F2DE9F8411E4615468846F2
:102620000446079F0BE03346414620460097FFF7DC
:102630007DFF082E0AD004EB5600C4B26D1C2A7828
:10264000A2F120005E28EED9BDE8F881A41DE4B215
:10265000F4E770B50C460546FFF736FC782000F02D
:1026600017F9FFF769FC0CB1402000E0002000F0F2
:102670000FF9FFF761FC284600F00AF9FFF75CFC50
:10268000BDE87040FFF740BC704700002DE9F04105
:10269000444C05468846E0680026810728680DD02E
:1026A000E16801F00301814216D1A8B1E0686968D0
:1026B000C0F30210401C88420ED120E0012804D053
:1026C000022805D0032807D108E02168890701E026
:1026D00021684905002907DB01265FE0216889039D
:1026E00002D421684903F5E7E1686A686FF00F03D7
:1026F00021F0730103EB021211430143E1602068F2
:1027000020F080602060FEF741F9074605E000BF39
:10271000FEF73CF9C01B022837D820680001F7D427
:10272000B8F1000F18D0B8F1010F1DD0287D4FF07F
:102730007E41400801EB4060A96840EA0120216920
:10274000194A114008432061206840F080602060F1
:10275000FEF71CF907461AE0A868297B000240EA48
:10276000C1602169114AECE7288A1149400801EB50
:102770004050A96840EA012021690E4AE1E700BF04
:10278000FEF704F9C01B022801D9032606E02068E1
:102790000001F5D52069A969084320613046BDE8EC
:1027A000F081000000100240FF80FFF9FF80FF076A
:1027B0000000E0FFFF809FFFF8B51C4D0646002497
:1027C000A86DC00002D5FEF7ADF90DE0A86D40F090
:1027D0008050A865A86D00F080500090FEF7A2F927
:1027E000A96D21F08051A965B0F5007F04D0802E3D
:1027F00007D94FF003040AE0802E08D9A02E01D893
:1028000004E001D1022402E0702E00D10124084826
:10281000016821F0070121430160006800F0070012
:10282000A04201D00120F8BD0020F8BD00100240F8
:102830000020024009484088C0F30E0006280BD94A
:1028400007488178002907D10179002904D1C1788E
:10285000427904A000F016BC704700000000002080
:102860002000002050433A2053544152545F5245B7
:10287000475F4E554D3A2025752C204249545F4EF6
:10288000554D202575200D0A0000000070470000FE
:1028900070B5104E05460024280601D5012200E03F
:1028A000002280213046FEF76CF8FFF761FB012221
:1028B00040213046FEF765F8FFF75AFB0022402121
:1028C0003046FEF75EF86806641C050EE4B2082C7C
:1028D000E2D370BD00040048FEF75EB810B5AEB09C
:1028E000442117A8FDF7C9FC142128A8FDF7C5FC51
:1028F0005C216846FDF7C1FC01201790000400240C
:102900001890219417A8FEF779FB0F202890022039
:10291000CDE929042B94002128A82C94FEF768FA0D
:1029200025200A94009008940B946846FEF702F95B
:102930004FF40070FEF7C2F82EB010BD0D480168CC
:1029400041F4700101600C48016841F0010101602F
:10295000002181600268094B1A4002608214C26043
:10296000026822F48022026081610249C00380393A
:102970000860704788ED00E000100240FFFFF6EAB3
:102980000148FEF756BF0000940A002070B50268A7
:10299000164B4FF08046984201D0B04203D122F04E
:1029A00070044A682243124C124D984205D0B0423E
:1029B00003D0A04201D0A84203D122F44076CA68D5
:1029C00032434E6922F08002324302608A68C2625A
:1029D0000A688262984203D0A04201D0A84201D185
:1029E000096901630121416170BD0000002C0140B3
:1029F000004001400044014010B5846842EA0322CF
:102A000024F47F440A432243826010BD826822F08E
:102A100070020A4342F007018160704710B5036AF3
:102A2000046A24F001040462846924F0F00444EA96
:102A3000021423F00A020A438461026210BD10B539
:102A4000036A23F0100303628369046A23F470436A
:102A500043EA023224F0A00343EA011182610162D9
:102A600010BD2DE9F0410546411E0AE00A2A03D0B7
:102A70000D2A01D0202A03D14A1C824200D10146EE
:102A8000401C0278002AF1D14E1C49780027401ED4
:102A900009B1441C0EE02F70BDE8F08101780A29CD
:102AA00003D00D2901D0202903D1611E814200D11C
:102AB0000446401EB042F1D8A21B31462846FDF71D
:102AC000B5FB2819801B0770E6E790F82410C907AA
:102AD00006D001684A68836A22F400321A434A60C9
:102AE00090F82410890706D501684A68C36A22F461
:102AF00080321A434A6090F82410490706D50168CD
:102B00004A68036B22F480221A434A6090F824102A
:102B1000090706D501684A68436B22F400421A434C
:102B20004A6090F82410C90606D501688A68836B4C
:102B300022F480521A438A6090F82410890606D540
:102B400001688A68C36B22F400521A438A6090F8C5
:102B50002410490611D501684A68036C22F48012DA
:102B60001A434A60016CB1F5801F06D101684A68BA
:102B7000436C22F4C0021A434A6090F824100906FC
:102B800006D501684A68806C22F4002202434A603C
:102B90007047F8B500260446C667FDF7F7FE054600
:102BA000206800686FF07E47000708D52B4600229A
:102BB0004FF400112046009700F0AAF960B9206890
:102BC000006840070AD52B4600224FF480012046BA
:102BD000009700F09DF908B10320F8BD2020606740
:102BE000A06784F870600020F8BD10B5806A0021ED
:102BF000A0F85A10A0F85210FEF722FF10BD70B5D1
:102C0000846A606FA56F216889684FF00006090625
:102C100006D5212804D1A4F85260204600F045F8DA
:102C200020688068400606D5222D04D1A4F85A6099
:102C3000204600F02BF8E06F40F01000E0672046DF
:102C4000FEF7FEFE70BD10B50146806A096809688E
:102C5000890613D40021A0F85A1001680A6822F4EA
:102C600080720A6001688A6822F001028A60016845
:102C70008A6822F040028A6020218167FFF7C6F847
:102C800010BD10B5806AFFF7C2F810BD01680A6870
:102C900022F490720A6001688A6822F001028A6058
:102CA0002021816700210166704701680A6822F0CF
:102CB000C0020A6020214167704700002DE9F04101
:102CC0000446036881680069E5690143606900277B
:102CD00028430143844A1868844D284008431860FB
:102CE00020684168E36821F440511943416021683C
:102CF000A069914201D0236A18438B6823F43063A2
:102D000003438B607A4B21687A4899420DD1D0F801
:102D1000880010F0030006D0012847D0022843D0D5
:102D2000032830D144E001252EE0734B99420BD1AA
:102D3000D0F8880010F00C0034D0042836D00828D1
:102D400032D00C281FD133E06C4B99420BD1D0F814
:102D5000880010F0300025D0102827D0202823D05C
:102D6000302810D124E091420DD1D0F8880010F421
:102D7000406017D0B0F5806F18D0B0F5006F13D059
:102D8000B0F5406F14D010255D4B00264FF4004085
:102D9000914245D175B1022D0FD0042D0FD0082DD1
:102DA00018D10FE00025EFE70225EDE70425EBE75A
:102DB0000825E9E7FEF7ACF803E0184602E0FEF765
:102DC000CBF8A8B3626802EB4201814202D8B0EBB3
:102DD000023F01D9012774E0DFF828815DB1022D9F
:102DE0000CD0042D13D0082DF4D15008290540181B
:102DF00046F1000105E0FEF78BF80AE05008424971
:102E0000F5E70023FDF7DEF9A0F5407155E0FEF788
:102E1000A3F86268010E0302500818187141F0E728
:102E2000E1694FF6EF7881422ED1092DD2D200E030
:102E300047E0DFE805F006091F0522050505250026
:102E4000C8E7FEF765F801E0FEF774F84100606836
:102E500001EB5001B1FBF0F080B2A0F1100141454F
:102E6000B8D84FF6F0710140C0F34200014320682A
:102E7000C16026E025496068EAE7FEF76DF8E5E7FE
:102E80004FF480316068E3E7092DA3D2DFE805F055
:102E900006091E052205050525009BE7FEF738F803
:102EA00001E0FEF747F80146606801EB500100BF02
:102EB000B1FBF0F080B2A0F1100141458AD8216841
:102EC000C860266638466666BDE8F081606803EB38
:102ED0005001EDE7FEF740F8E5E7616800EB5100CF
:102EE000B0FBF1F0E6E7000000800040F369FFEF7F
:102EF00000380140001002400044004000480040FB
:102F00000024F400FFFC0F00000024F40048E80156
:102F10002DE9F041984617460E460446069D08E006
:102F2000681C06D0FDF732FDA0EB0800A8420BD8C4
:102F300055B12068C06936EA000017D00020B842B9
:102F4000EED00020BDE8F0812068016821F4D07146
:102F500001602068816821F00101816020206067A4
:102F6000A067002084F870000320EBE70120E6E76B
:102F700010B51E4C2068C169C943090701D4082156
:102F800010E0C169C943490701D404210AE0C169BD
:102F9000C943890701D4022104E0C169C943C907B3
:102FA00001D1012101622068C169C943C9061BD44E
:102FB000102101620D48FEF70AFDE06E00684068CE
:102FC000C0F580610A4841800A4A43880021D154F3
:102FD000418841F400414180BDE810404FF48062D7
:102FE00004490248FEF7C4BE10BD0000A00800203E
:102FF000000000202000002010B51E4C2068C16990
:10300000C943090701D4082110E0C169C943490730
:1030100001D404210AE0C169C943890701D402210E
:1030200004E0C169C943C90701D1012101622068D7
:10303000C169C943C9061BD4102101620D48FEF7BE
:10304000C6FCE06E00684068C0F580610A48818077
:103050000A4A83880021D154818841F4004181804B
:10306000BDE810404FF4806204490248FEF780BE7C
:1030700010BD0000200900200000002020040020D6
:10308000FEE700000FB4054B10B503A9044A0298EF
:1030900000F028F810BC5DF814FB00004132000875
:1030A0001C0000200907090E002804DB00F1E020C5
:1030B00080F80014704700F00F0000F1E02080F865
:1030C000141D704702E008C8121F08C1002AFAD177
:1030D00070477047002001E001C1121F002AFBD198
:1030E000704700002DE9FF4F89B09B46044600253C
:1030F00006E025280BD05A460B999047641C6D1C9E
:1031000020780028F5D10DB0284600F095B80027AA
:10311000B8460122474900E0074314F8013F203B2D
:1031200002FA03F00842F7D120782E2819D114F8BA
:10313000010F47F004072A280ED06FF02F022078E5
:10314000A0F1300109290CD808EB880102EB4101FC
:1031500000EB0108641CF2E70A98641C50F8048B29
:103160000A9020780028CED0642808D0692806D09C
:1031700075281ED05A460B9990476D1C58E00A9945
:103180004FF00A0901C90A91002802DA40422D21B4
:1031900002E0390504D52B218DF82010012103E030
:1031A000F90704D02021F7E78A4608AE0DE0002198
:1031B000FAE70A994FF00A0901C90A91F7E7494667
:1031C000FDF766F8303106F8011D0028F7D1ADEBA8
:1031D000060000F12009780701D44FF00108C84526
:1031E00002DDA8EB090000E000208046002706E091
:1031F00008A85A46C05D0B9990476D1C7F1C574527
:10320000F6DB04E030205A460B9990476D1CB8F16C
:103210000001A8F10108F5DC05E016F8010B5A469B
:103220000B9990476D1CB9F10001A9F10109F4DC7B
:10323000641C65E70928010030BCBDE8C08F0000B0
:1032400008B5FF238DF80000012269460248FEF709
:10325000DFFD002008BD0000A0080020FDF7A4FB52
:10326000FFF73CFBFEF7AEFEFEF78EFEFEF792FF89
:10327000FEF7AEFFFEF712FFFEF72EFFFEF754FF3C
:10328000FFF752F800224FF400511548FDF779FB83
:10329000FFF718F91348FEF747FA4FF48062124916
:1032A0001248FEF765FD11480068016841F0100101
:1032B00001600F480068016841F0100101600D4C89
:1032C00000256088000405D50BA0FFF7DBFEFEF7A4
:1032D0009FFF6580A0880004F3D5FDF7B5F8F0E7FF
:1032E00000080048940A002020000020A0080020C8
:1032F000200900200000002050433A20204D6F6438
:103300006275732068616E646C6572200D0A00003E
:103310000000000000000000010203040607080985
:10332000A0860100400D0300801A060000350C0045
:1033300040420F0080841E0000093D0000127A0008
:103340000024F40000366E010048E801006CDC0245
:103350000000000001020304000000000000000063
:10336000002F000000000700070000147F147F14E6
:1033700000242A7F2A12006264081323003649556C
:10338000225000000503000000001C224100000044
:1033900041221C000014083E08140008083E0808DA
:1033A000000000A060000008080808080000606035
:1033B0000000002010080402003E5149453E000074
:1033C000427F4000004261514946002141454B3156
:1033D000001814127F10002745454539003C4A4922
:1033E0004930000171090503003649494936000694
:1033F0004949291E000036360000000056360000FC
:103400000008142241000014141414140000412276
:10341000140800020151090600324959513E007C4E
:103420001211127C007F49494936003E4141412238
:10343000007F4141221C007F49494941007F090921
:103440000901003E4149497A007F0808087F0000D1
:10345000417F4100002040413F01007F081422418C
:10346000007F40404040007F020C027F007F040844
:10347000107F003E4141413E007F09090906003EA0
:103480004151215E007F09192946004649494931C9
:103490000001017F0101003F4040403F001F2040EC
:1034A000201F003F4038403F0063140814630007AA
:1034B0000870080700615149454300007F41410001
:1034C00000552A552A55000041417F0000040201A1
:1034D000020400404040404000000102040000207F
:1034E00054545478007F48444438003844444420BD
:1034F00000384444487F00385454541800087E096A
:1035000001020018A4A4A47C007F08040478000031
:10351000447D4000004080847D00007F10284400EE
:103520000000417F4000007C04180478007C0804FF
:10353000047800384444443800FC2424241800183B
:10354000242418FC007C0804040800485454542027
:1035500000043F444020003C4040207C001C2040B0
:10356000201C003C4030403C004428102844001CF3
:10357000A0A0A07C004464544C44141414141414EB
:103580000000000000000000000000000000FC003F
:103590000000000002000000000C020C020000000D
:1035A0000000000090D0BCD0BC90000300030000DD
:1035B0001824FE448C000302070201001824D8B02E
:1035C0004C80000300010201C038E438E000010231
:1035D00002010202080600000000000000000000D6
:1035E000000000F80402000000010204000204F8D8
:1035F00000000004020100009060F86090000000EC
:10360000010000002020FC2020000000010000003C
:10361000000000000000080600000000202020201C
:103620002000000000000000000000000000000278
:10363000000000000080601C020004030000000085
:10364000F8040404F8000102020201000008FC0072
:103650000000000203020000188444241800030242
:103660000202020008042424D80001020202010020
:1036700040B088FC80000000000302003C242424A9
:10368000C400010202020100F824242CC00001023F
:10369000020201000C04E41C04000000030000000E
:1036A000D8242424D80001020202010038444444F2
:1036B000F8000003020201000000100000000000FA
:1036C00002000000000020000000000006000000D2
:1036D00000205088040200000000010290909090A9
:1036E000900000000000000000020488502000024A
:1036F000010000001804C4241800000002000000AB
:10370000F804E494F80001020202020000E09CF0D8
:10371000800002030000030204FC2424D8000203FA
:1037200002020100F80404040C000102020201007C
:1037300004FC0404F80002030202010004FC2474E7
:103740000C0002030202030004FC24740C000203B8
:1037500002000000F0080444CC4000010202010015
:1037600004FC2020FC040203000003020404FC0407
:103770000400020203020200000404FC0404060424
:103780000403000004FC24D00C0402030200030222
:1037900004FC04000000020302020203FC3CC03CE3
:1037A000FC0003000300030004FC30C4FC0402031B
:1037B00002000300F8040404F80001020202010000
:1037C00004FC24241800020302000000F88484048E
:1037D000F80001020207050004FC246498000203BB
:1037E00002000302182424448C0003020202010098
:1037F0000C04FC040C0000020302000004FC0000A6
:10380000FC04000102020100047C80E01C040000B2
:10381000030000001CE03CE01C000003000300006B
:10382000049C609C0400020300030200041CE01CD2
:1038300004000002030200000C84641C0400020364
:10384000020203000000FE02020000000704040060
:10385000000E30C00000000000010200000202FE65
:10386000000000040407000000040204000000003F
:103870000000000000000000000008080808080818
:103880000000020000000000000000000040A0A0B6
:10389000C00000010202030204FC2020C00000035B
:1038A0000202010000C020206000000102020200AC
:1038B00000C02024FC0000010202030200C0A0A0FE
:1038C000C0000001020202000020F82424040002CB
:1038D000030202000040A0A0602000070A0A0A04B8
:1038E00004FC2020C0000203020003020020E400C8
:1038F0000000000203020000000020E400000808AD
:103900000807000004FC80E02020020302000302FC
:103910000404FC000000020203020200E020E02098
:10392000C00003000300030020E02020C0000203C9
:103930000200030200C02020C000000102020100BA
:1039400020E02020C000080F0A02010000C0202053
:10395000E0000001020A0F0820E0402020000203DE
:10396000020000000060A0A020000002020203008C
:103970000020F820000000000102020020E00020EA
:10398000E00000010202030220E02080602000002D
:10399000030100006080E08060000003000300007D
:1039A00020608060200002030003020020E02080ED
:1039B00060200808070100000020A060200000022D
:1039C00003020200000020DE0200000000070400E5
:1039D000000000FF00000000000F00000002DE20D9
:1039E00000000004070000000201020404020000BD
:1039F00000000000000000000000000000000000C7
:103A000000000000000000F800000000000000338B
:103A10003000000000100C06100C06000000000032
:103A20000000000040C07840C0784000043F04041B
:103A30003F040400007088FC08300000001820FFDC
:103A4000211E0000F008F000E018000000211C0317
:103A50001E211E0000F00888700000001E21232493
:103A60001927211010160E000000000000000000B1
:103A700000000000000000E0180402000000000741
:103A80001820400000020418E00000000040201848
:103A900007000000404080F0804040000202010F1B
:103AA00001020200000000F0000000000101011FFF
:103AB00001010100000000000000000080B0700063
:103AC00000000000000000000000000000010101F3
:103AD0000101010100000000000000000030300082
:103AE000000000000000000080601804006018065C
:103AF0000100000000E010080810E000000F102096
:103B000020100F00001010F8000000000020203FDF
:103B10002020000000700808088870000030282469
:103B2000222130000030088888483000001820200A
:103B300020110E000000C02010F80000000704242F
:103B4000243F240000F80888880808000019212074
:103B500020110E0000E0108888180000000F1120CE
:103B600020110E0000380808C83808000000003F87
:103B7000000000000070880808887000001C2221E6
:103B800021221C0000E010080810E0000000312293
:103B900022110F00000000C0C00000000000003033
:103BA0003000000000000080000000000000806085
:103BB0000000000000008040201008000001020406
:103BC00008102000404040404040400004040404ED
:103BD00004040400000810204080000000201008A9
:103BE00004020100007048080808F00000000030DE
:103BF00036010000C030C828E810E000071827246C
:103C000023140B000000C038E0000000203C230219
:103C10000227382008F8888888700000203F20207C
:103C200020110E00C03008080808380007182020AE
:103C30002010080008F808080810E000203F2020A5
:103C400020100F0008F88888E8081000203F202086
:103C50002320180008F88888E8081000203F20007A
:103C600003000000C03008080838000007182020B2
:103C7000221E020008F808000008F808203F210171
:103C800001213F20000808F8080800000020203F1C
:103C90002020000000000808F8080800C08080808C
:103CA0007F00000008F888C028180800203F200185
:103CB0002638200008F8080000000000203F2020DF
:103CC0002020300008F8F800F8F80800203F003FF6
:103CD000003F200008F830C00008F808203F20000E
:103CE00007183F00E01008080810E0000F1020201F
:103CF00020100F0008F808080808F000203F2101F4
:103D000001010000E01008080810E0000F1824244A
:103D100038504F0008F8888888887000203F2000BD
:103D2000030C302000708808080838000038202173
:103D300021221C00180808F8080818000000203F7D
:103D40002000000008F808000008F808001F2020E4
:103D500020201F000878880000C8380800000738B5
:103D60000E010000F80800F80008F800033C070006
:103D7000073C0300081868808068180820302C036E
:103D8000032C30200838C800C83808000000203F45
:103D90002000000010080808C83808002038262134
:103DA00020201800000000FE020202000000007F38
:103DB00040404000000C30C0000000000000000146
:103DC0000638C00000020202FE0000000040404031
:103DD0007F00000000000402020204000000000056
:103DE00000000000000000000000000080808080D3
:103DF00080808080000202040000000000000000BB
:103E00000000000000008080808000000019242253
:103E100022223F2008F8008080000000003F11208F
:103E200020110E000000008080800000000E112094
:103E300020201100000000808088F800000E112072
:103E400020103F200000808080800000001F222280
:103E500022221300008080F0888888180020203FEC
:103E6000202000000000808080808000006B9494FF
:103E70009493600008F8008080800000203F2100BB
:103E800000203F2000809898000000000020203F84
:103E900020200000000000809898000000C0808072
:103EA000807F000008F8000080808000203F24020E
:103EB0002D302000000808F8000000000020203FFE
:103EC000202000008080808080808000203F2000B3
:103ED0003F20003F8080008080800000203F210044
:103EE00000203F200000808080800000001F2020F4
:103EF00020201F00808000808000000080FFA12023
:103F000020110E000000008080808000000E112033
:103F100020A0FF80808080008080800020203F21C2
:103F20002000010000008080808080000033242475
:103F300024241900008080E0808000000000001F21
:103F4000202000008080000000808000001F2020D2
:103F500020103F20808080000080808000010E3093
:103F60000806010080800080008080800F300C03F4
:103F70000C300F0000808000808080000020312EF7
:103F80000E312000808080000080808080818E70D3
:103F90001806010000808080808080000021302C85
:103FA0002221300000000000807C0202000000009E
:103FB000003F404000000000FF0000000000000043
:103FC000FF0000000002027C800000000040403F33
:103FD00000000000000601010202040400000000CD
:103FE00000000000000000000000000000000000D1
:103FF00000000000000000000000000000000000C1
:1040000000000000000000000000000000F0F0F0E0
:10401000000000000000000000017F01000000001F
:1040200000000000001C1C1C00000000000080605C
:10403000301C8C60301C0C000000000000000000F0
:104040000000000000000000000000000000000070
:10405000000000E00000000000E000000086E69F95
:1040600086868686E69F860000011F010101010108
:104070001F010100000080C06020F820E0C00000A7
:10408000000003070C18FF70E18100000000070F1B
:1040900010107F100F07000080602060800000007B
:1040A000E02000000F3020309F70DC371030C0005F
:1040B0000000100E03000718101807000000C020B1
:1040C00020E0C0000000000080E01F38E88703C443
:1040D0003C040000070F1810100B070D101008000B
:1040E00000808C4C38000000000000000000000040
:1040F00000000000000000000000000000000000C0
:104100000000000000000000000080E03008040013
:104110000000000000FEFF010000000000000000A1
:104120000000030F1820400000040830E080000069
:10413000000000000000000001FFFE000000000081
:10414000004020180F0300000000000000000000E5
:104150000000C00000000000004266663C18FF1826
:104160003C66664200000000000003000000000002
:10417000000000000000800000000000001010108F
:104180001010FF10101010100000000000000300BD
:10419000000000000000000000000000000000001F
:1041A00000000000000000000000000000808C4CB7
:1041B00038000000000000000000000000000000C7
:1041C000000000000010101010101010101010004F
:1041D00000000000000000000000000000000000DF
:1041E00000000000000000000000000000000000CF
:1041F0000000000000001C1C1C000000000000006B
:104200000000000000000000E0380C00000000008A
:1042100080701C03000000000060380E01000000E8
:1042200000000000000080C060202060C08000000E
:1042300000FEFF010000000001FFFE000001070E6C
:10424000181010180E0701000000808080C0E000E8
:10425000000000000000000000FFFF000000000060
:1042600000001010101F1F101010000000804020D0
:1042700020202060C0800000000303008040203820
:104280001F070000001C1A1918181818181F000022
:104290000080C020202060C08000000000030300D8
:1042A0001010182FE780000000070F1010101018D2
:1042B0000F070000000000000000C0E0F000000058
:1042C00000C0B088868180FFFF8080000000000071
:1042D0000010101F1F1010000000E06060606060A0
:1042E0006060000000003F1008080818F0E00000BF
:1042F00000070B101010101C0F030000000080C0FE
:1043000040202020E0C0000000FCFF211008080829
:1043100018F0E0000001070C18101010080F03003F
:104320000000C0E06060606060E0600000000300CA
:104330000000E0180700000000000000001F1F0040
:10434000000000000080C0602020202060C08000AD
:104350000087EF2C1818303068CF830000070F0853
:1043600010101010180F07000000C0C020202020DF
:10437000C0800000001F3F604040402010FFFE0052
:1043800000000C1C101010080F03000000000000BB
:10439000000000000000000000000000000E0E0EF3
:1043A0000000000000000000001C1C1C00000000B9
:1043B00000000000000000000000000000000000FD
:1043C000000C0C0000000000000000000058380045
:1043D00000000000000000000000008040201000ED
:1043E00000001028448201000000000000000000CE
:1043F000000001020408100000000000000000009E
:104400000000000000848484848484848484840084
:10441000000000000000000000000000000010206C
:104420004080000000000000000000000000018249
:1044300044281000000010080402010000000000E1
:1044400000C020201010101030E0C0000003030056
:1044500000F010080C070300000000001C1C1C00EA
:1044600000000000000000C0406020202040C0008C
:1044700000FCFF01F00E03C1FE03807F0001070E68
:1044800008111110110904020000000080E0E00092
:10449000000000000000807C4340477FF88000005F
:1044A00010181F1000000000131F1C1020E0E02057
:1044B00020202060C080000000FFFF1010101018A6
:1044C0002FE78000101F1F1010101010180F07008A
:1044D000000080C0402020202060E00000FCFF01A0
:1044E00000000000000001000001070E181010106D
:1044F0000804030020E0E02020202040C0800000CD
:1045000000FFFF000000000001FFFE00101F1F1051
:10451000101018080E07010020E0E02020202020C5
:104520002060800000FFFF101010107C00000000D1
:10453000101F1F10101010101018060020E0E020AF
:10454000202020206060800000FFFF101010107CF1
:1045500000000100101F1F100000000000000000FC
:10456000000080C06020202040E0000000FCFF012F
:1045700000004040C0C140400001070E181010105C
:104580000F0F000020E0E0200000000020E0E0200D
:1045900000FFFF101010101010FFFF00101F1F1061
:1045A00000000000101F1F100000202020E0E0206D
:1045B000202000000000000000FFFF0000000000BD
:1045C00000001010101F1F1010100000000000004D
:1045D000202020E0E020202000000000000000FF5C
:1045E000FF0000000060E0808080C07F3F0000008E
:1045F00020E0E020000020A06020200000FFFF302D
:10460000187CE3C000000000101F1F100000011301
:104610001F1C181020E0E020000000000000000037
:1046200000FFFF000000000000000000101F1F102E
:10463000101010101018060020E0E0E0000000004C
:10464000E0E0E02000FF013FFEC0E01E01FFFF00B0
:10465000101F1000031F0300101F1F1020E0E0C0F8
:10466000000000000020E02000FF0003071C78E0AD
:104670008000FF00101F100000000000030F1F004B
:10468000000080C060202060C080000000FEFF01AC
:104690000000000000FFFE000001070E18101018B7
:1046A0000C07010020E0E0202020202060C08000D6
:1046B00000FFFF2020202020301F0F00101F1F10A0
:1046C0000000000000000000000080C060202060AA
:1046D000C080000000FEFF010000000000FFFE009F
:1046E0000001070E1111133C7C67210020E0E0203F
:1046F0002020202060C0800000FFFF101030F0D08C
:10470000080F0700101F1F10000000030F1C1010DF
:104710000080C060202020204040E00000070F0CF7
:104720001818303060E08100001F0C0810101010C5
:10473000180F07008060202020E0E020202060800B
:104740000100000000FFFF00000000010000000069
:10475000101F1F100000000020E0E02000000000FB
:104760000020E02000FFFF00000000000000FF002C
:1047700000070F1810101010100807002060E0E06C
:104780002000000020E060200000077FF88000800B
:104790007C03000000000000071F1C070000000051
:1047A00020E0E02000E0E0200020E0200007FFF80B
:1047B000E01FFFFCE01F00000000031F0300011FBB
:1047C00003000000002060E0A0000020E060200066
:1047D000000000038F7CF8C6010000000010181EC6
:1047E000130001171F1810002060E0E020000000F7
:1047F00020E06020000001073EF8E01807000000FC
:1048000000000010101F1F1010000000008060202A
:10481000202020A0E0E0200000000000C0F03E0FBB
:104820000300000000101C1F1710101010180600C5
:104830000000000000FC0404040404000000000068
:1048400000FF00000000000000000000007F40406A
:1048500040404000000010E00000000000000000A8
:1048600000000000031C6080000000000000000049
:10487000000000030C70800000000404040404FC29
:104880000000000000000000000000FF0000000029
:10489000000040404040407F000000000000001049
:1048A000080C040C081000000000000000000000CC
:1048B00000000000000000000000000000000000F8
:1048C00000000000000000000000000000000000E8
:1048D00000000000000000008080808080808080D8
:1048E00080808080000000040408080000000000B0
:1048F00000000000000000000000000000000000B8
:1049000000000000000000000000000000000000A7
:1049100000000000000098D844642424FCF8000043
:10492000000F1F18101010081F1F10180020E0F0B3
:1049300000000000000000000000FFFF1808040451
:104940000CF8F00000001F0F18101010180F0300D3
:1049500000000000000000000000000000E0F81867
:104960000404043C3800000000030F0C1010101069
:10497000080600000000000000000020E0F0000039
:1049800000E0F81C04040408FFFF000000030F18F7
:10499000101010081F0F08000000000000000000A9
:1049A000000000000000E0F8484444444C787000E7
:1049B0000000030F0C181010100804000000000085
:1049C00080C0602020E0C00000040404FFFF040455
:1049D00004040000000010101F1F10101000000041
:1049E000000000000000000000000000000070F85F
:1049F0008C04048CF874040C007076CF8D8D8D8936
:104A0000C87870000020E0F0000000000000000006
:104A10000000FFFF08040404FCF8000000101F1F42
:104A2000100000101F1F1000000000000060600058
:104A3000000000000000040404FCFC000000000072
:104A400000001010101F1F101010000000000000C8
:104A5000000000606000000000000000040404FC8E
:104A6000FC0000000000C0C08080C07F3F0000004C
:104A70000020E0F000000000000000000000FFFF48
:104A800080C0F41C0404000000101F1F1100031F4D
:104A90001C1010000000202020E0F00000000000AA
:104AA0000000000000FFFF000000000000001010E8
:104AB000101F1F1010100000000000000000000078
:104AC0000000000004FCFC0804FCFC0804FCFC00E2
:104AD000101F1F10001F1F10001F1F1000000000DC
:104AE00000000000000000000004FCFC08080404B2
:104AF000FCF8000000101F1F100000101F1F100006
:104B000000000000000000000000000000E0F018BD
:104B10000C04040C18F0E00000030F0C101010102F
:104B20000C0F030000000000000000000000000067
:104B30000004FCFC080404040CF8F0000080FFFFF3
:104B4000889010101C0F03000000000000000000FF
:104B50000000000000E0F81C04040408F8FC000059
:104B600000030F1810109088FFFF80000000000065
:104B70000000000000000000040404FCFC10080415
:104B8000040C0C001010101F1F101010000000006B
:104B9000000000000000000000000000000030786D
:104BA000CCC48484840C1C0000001E18101010114A
:104BB000190F06000000000000C000000000000007
:104BC00000040404FFFF04040400000000000000CF
:104BD0000F1F1010100C000000000000000000006B
:104BE000000000000004FCFE00000004FCFE0000C9
:104BF00000000F1F181010081F0F08000000000011
:104C0000000000000000000000040C3CFCC4000098
:104C1000C43C0C0400000000010F1E0E0100000047
:104C2000000000000000000000000000043CFCC484
:104C300000E47CFC84807C040000071F0700000760
:104C40001F0700000000000000000000000000003E
:104C50000004041C7CE4C0341C0404000010101C7C
:104C60001601131F1C1810000000000000000000B7
:104C70000000000000040C3CFCC400C43C04040020
:104C80000000C080C1370E010000000000000000DD
:104C9000000000000000000000001C0404C4F47CBC
:104CA0001C0400000000101C1F17111010180E002B
:104CB00000000000000000F80C04000000000000EC
:104CC000001028EF00000000000000000000003F7E
:104CD00060400000000000000000FF000000000035
:104CE000000000000000FF000000000000000000C5
:104CF0000000FF00000000000000040CF8000000AD
:104D00000000000000000000EF281000000000007C
:104D1000000040603F000000000000000018060294
:104D200002040810202030080000000000000000ED
:104D30000000000000000000000000000000000073
:104D40000000F010101010FF10101010F000000004
:104D500000000F04040404FF040404040F00000016
:104D60004040405F555555755555555F4040400092
:104D70000040200F094989790909090F20400000E6
:104D800000FE02424ACA4A4ACA4A4A4202FE000099
:104D900000FF40504C4340404F50505C40FF0000EB
:104DA0000000F888888888FF88888888F8000000D4
:104DB00000001F080808087F888888889F80F00006
:104DC00080828282828282E2A2928A8682808000AF
:104DD000000000000040807F000000000000000094
:104DE000101010FF109008888888FF8888880800B5
:104DF0000444827F01808040432C1028468180003B
:104E00000010101010D030FF30D0121C1010000015
:104E100010080402010000FF000001020408100055
:104E200004040484E43C2724242424E4040404002B
:104E300004020100FF0909090949897F00000000F7
:104E400000FE225A8600FE9292929292FE0000008C
:104E500000FF04080700FF4020030C14224140001B
:104E600000804020180680000718204080000000C5
:104E70000100207028262120202438600001010034
:104E8000001012929292929292121202FE00000070
:104E90000000003F101010103F0040807F00000015
:104EA000000000C080808080808080FC84808080C2
:104EB000808080C0C0000000000000FF7F404040B4
:104EC000404040FF40404040404040FF7F000000E5
:104ED00000000000000000000000007F70000000E3
:104EE00000000000000000000000000000000000C2
:104EF00000000000000000FCF800000000000000BE
:104F0000000000000000000000000000FFFE0202A0
:104F100002020202020202FFFF0202020202020277
:104F20000202FF0300000000000000001F1F040435
:104F300004040404040404FFFF040404040404043B
:104F400004041F000000000000000000000000003A
:104F5000000000000000007F3F0000000000000093
:104F60000000000000000000000000000000000041
:104F70000000000000000000000000000000000031
:104F80000000000000F8F8F0F070200000000000C1
:104F90000000000000000000000000000000000011
:104FA0000000000000000000000000000000000001
:104FB0008000000000000000000000000000000071
:104FC0000000000000FFFFFFFF00000000000000E5
:104FD00000000000000000000000000080800000D1
:104FE00000000000000000000000000000000000C1
:104FF00000FFFFFE0606060606060606060606066D
:105000000606060606FFFFFFFF060606060606065C
:105010000606060606060606060606FFFFFFFF074B
:10502000020000000000000000000000000000007E
:1050300000FFFFFF00000000000000000000000073
:105040000000000000FFFFFFFF0000000000000064
:105050000000000000000000000000FFFFFFFF0054
:105060000000000000000000000000000000000040
:1050700000FFFFFF18181818181818181818181813
:105080001818181818FFFFFFFF1818181818181804
:105090001818181818181818181818FFFFFFFF000C
:1050A0000000000000000000000000000000000000
:1050B00002010100000000000000000000000000EC
:1050C0000000000000FFFFFFFF00000000000000E4
:1050D00000000000000000000000000101000000CE
:1050E00000000000000000000000000000000000C0
:1050F00000000000000000000000000000000000B0
:105100000000000000FFFFFFFF00000000000000A3
:10511000000000000000000000000000000000008F
:10512000000000000000000000000000000000007F
:10513000000000000000000000000000000000006F
:1051400000000000001F1F0F0F0000000000000003
:10515000000000000000000000000000000000004F
:10516000000000000000000088510008000000203E
:1051700020000000C4300008A851000820000020D2
:1051800038130000D43000080100000000000000C7
:1051900000000000100000000100000000000000FE
:0851A00000093D0000000000C1
:040000050800018D61
:00000001FF
