:020000040800F2
:10000000980A0020A1010008171A000871180008BA
:10001000151A0008B502000825210008000000009C
:10002000000000000000000000000000C51B0008E8
:10003000FF02000800000000191A0008C71B000892
:10004000BB010008BB010008BB010008BB010008A0
:10005000BB010008BB010008BB010008BB01000890
:10006000BB010008BB010008BB010008BB01000880
:10007000BB010008BB010008B9020008C502000866
:10008000BB010008BB010008BB010008BB01000860
:10009000BB010008BB010008BB010008BB01000850
:1000A000BB010008BB010008BB010008BB01000840
:1000B000BB0100080000000000000000BB010008B8
:1000C000BB010008BB010008BB010008BB01000820
:1000D000BB01000819210008BB010008BB01000892
:1000E000BB010008BB010008000000000000000088
:1000F0000000000000000000000000000000000000
:1001000000000000BB01000800000000BB01000867
:100110000000000000000000BB010008BB01000857
:10012000BB010008BB010008BB010008BB010008BF
:10013000BB010008000000000000000000000000FB
:10014000BB010008BB010008BB0100080000000063
:10015000BB010008BB010008BB010008BB0100088F
:10016000BB010008BB010008BB0100080000000043
:10017000BB010008BB0100080000000000000000F7
:10018000BB010008BB010008BB010008DFF80CD070
:1001900000F07EF800480047B5210008980A0020CA
:1001A0000648804706480047FEE7FEE7FEE7FEE711
:1001B000FEE7FEE7FEE7FEE7FEE7FEE7311C00088C
:1001C0008D0100082DE9F05F0546002092469B4610
:1001D00088460646814640241BE02846414647465D
:1001E000224600F044F853465A46C01A914110D3B3
:1001F00011461846224600F02BF82D1A67EB01082D
:100200004F4622460120002100F022F817EB00099A
:100210004E41201EA4F10104DFDC484631462A4647
:10022000434600F000B830BCBDE8C09FD2B201E048
:1002300000F8012B491EFBD270470022F6E710B5EB
:1002400013460A4604461946FFF7F0FF204610BD44
:10025000202A04DB203A00FA02F100207047914086
:10026000C2F1200320FA03F3194390407047202A7B
:1002700004DB203A21FA02F00021704721FA02F350
:10028000D040C2F120029140084319467047000057
:10029000064C074D06E0E06840F0010394E80700D3
:1002A00098471034AC42F6D3FFF774FFB42200082D
:1002B000D4220008FEE70000014800F049B8000021
:1002C000E8050020014800F043B80000A005002028
:1002D00030B590F8444004F01C050124AC40056C96
:1002E0006C60046863608368102B036803D09960B6
:1002F0000068C26030BD9A600068C16030BD704760
:10030000704710B590F825100024022903D004216D
:10031000C16301241AE001680A6822F00E020A6033
:1003200001680A6822F001020A6090F84410036C28
:1003300001F01C02012101FA02F25A6080F8251036
:10034000002180F82410816B01B18847204610BD40
:10035000F0B4016C0C6801680D6890F8442002F05C
:100360001C06042202FA06F3234211D06B070FD5B4
:100370000B689B0603D40B6823F004030B6090F812
:10038000441001F01C018A40016C4A60016B1DE0C1
:10039000022303FA06F727424FF0000C4FF0010248
:1003A00018D0AF0716D50C68A40605D40C6824F045
:1003B0000A040C6080F8252090F8441001F01C011C
:1003C0008B40016C4B6080F824C0C16A00291AD0B0
:1003D000F0BC08470823B340234214D02B0712D5A2
:1003E0000B6823F00E030B6090F84410036C01F0CF
:1003F0001C0102FA01F15960C26380F8252080F8DF
:1004000024C0416BE2E7F0BC7047000070B568B1F2
:100410002B4C036814212B4AA34209D22A4C1C44BA
:10042000B4FBF1F18900C0E910210BE0012070BD9F
:10043000234C64421C44B4FBF1F18900416420491F
:1004400008390164022180F825101C6847F6F07114
:100450008C43D0E902152943D0E90456354329439A
:1004600085692943C5692943056A294321431960E0
:100470008168B1F5804F19D0036C0F21934202D1EE
:1004800052F8A83F02E00E4AA032136890F84440A8
:1004900004F01C04A1408B43136090F84430416881
:1004A00003F01C0399401368194311600021C163D4
:1004B000012280F8252080F82410084670BD000035
:1004C0000804024000000240F8FFFDBF70B504467A
:1004D00090F82400002501280CD0012084F8240085
:1004E00094F825600020012E06D084F8240002250F
:1004F000284670BD022070BD022684F82560E063A6
:100500002068066826F0010606602046FFF7E0FE38
:10051000206B00282068016802D041F00E0106E03F
:1005200021F0040101602068016841F00A010160C6
:100530002068016841F001010160D9E770B5044607
:1005400000F0E2F80546601C02D00448406804440C
:1005500000F0DAF8401BA042FAD370BD040000207E
:100560002DE9F84FDFF864B100234FF0010C4FF094
:10057000030A4FF00F090BF1040EA0E00CFA03F68A
:10058000324072D04C68022C01D0122C0ED1DC0803
:1005900000EB8408D8F820405D07EF0E09FA07F554
:1005A000AC430D69BD402543C8F8205007685D0085
:1005B00091F804800AFA05F408F00308A74308FA42
:1005C00005F848EA0708C0F800804F68012F05D0F9
:1005D000022F03D0112F01D0122F11D18768D1F82B
:1005E0000C80A74308FA05F848EA0708C0F8088015
:1005F0004768B7430E79C6F300169E403E434660F7
:10060000C668A6438C68AC403443C4604C68E400C0
:1006100054D52F4C256E45F001052566246E23F038
:10062000030504F0010400942A4C2E19B4689D07B8
:100630002F0F09FA07F5AC43B0F1904F04D0264DC7
:10064000A84203D1012512E0002510E0234DA84265
:1006500001D102250BE0224DA84201D1032506E07D
:10066000204DA84202D1042501E027E00725BD4026
:100670002543B560DBF800405D464E689443F603C1
:1006800000D514432C60DEF8004075464E68944354
:10069000B60300D514432C600C4D08352C684E6809
:1006A0009443F60200D514432C60084D0C352C6899
:1006B0004E689443B60200D514432C605B1C0A6854
:1006C00032FA03F47FF45AAF00F00EB80004014090
:1006D00000100240000001400004004800080048EB
:1006E000000C00480010004818BCBDE8E08F4269CB
:1006F0000A4201D081627047816170470AB181610D
:1007000070478162704700000148806870470000B0
:1007100004000020024881684268114481607047EB
:100720000400002010B50024032000F071F8002020
:1007300000F008F808B1012401E000F025F8204697
:1007400010BD000070B50E4E05460024706898B1CB
:100750004FF47A71B1FBF0F00A490968B1FBF0F08F
:1007600000F022FE40B9102D06D200222946501E6C
:1007700000F02EF8356000E00124204670BD000036
:100780000400002010000020094808B5016E41F067
:1007900001010166016E01F001010091816D41F0DE
:1007A00080518165806D00F08050009008BD000090
:1007B00000100240002809DB00F01F0201219140D7
:1007C0004009800000F1E020C0F8001170470000EF
:1007D000F0B40E4B1B680C46C3F30223C3F10705AC
:1007E000042D00D90425191D072901D2002300E09A
:1007F000DB1E012606FA05F1491E214099409E4064
:10080000761E16403143F0BC01F096BC0CED00E0C2
:10081000064900F0070208684FF6FF03184040EA57
:100820000220034A10430860704700000CED00E00E
:100830000000FA051649B0F5007F0868C0F34120B2
:1008400009D0022805D0086820F4C06040F4806018
:100850000860002070470128FBD0086820F4C060C1
:1008600040F4007008600B483222006850430A4A86
:10087000B0FBF2F0401C00E0401E4A69520501D571
:100880000028F9D148694005E3D5032070470000EE
:10089000007000401000002040420F000248006835
:1008A00000F4C06070470000007000402DE9F84F70
:1008B000044600270088A84D3E46000515D5606C0B
:1008C00060B1B0F5000F04D0B0F5400F2BD0012778
:1008D0000AE0E86840F48030E86024E00021201D50
:1008E00001F09CF807001ED03E46206880033AD5F0
:1008F000A86D4FF00008C00009D4A86D40F08050EA
:10090000A865A86D4FF0010800F080500090DFF856
:100910004CA2DAF8001041F48071CAF80010FFF719
:10092000F3FE814610E0D5F88800616C20F44000A9
:100930000843C5F88800D8E7FFF7E6FEA0EB0900FA
:10094000022801D9032705E0DAF80000C005F3D535
:10095000002F7DD04FEA0706B8F1000F03D0A86D35
:1009600020F08050A8652078C00707D0D5F888000F
:10097000216A20F003000843C5F88800207880072A
:1009800007D5D5F88800616A20F00C000843C5F847
:1009900088002078400707D5D5F88800A16A20F0A4
:1009A00030000843C5F888002078800607D5D5F8C0
:1009B0008800E16A20F440600843C5F88800208878
:1009C000800507D5D5F88800E16B20F44020084366
:1009D000C5F888002088400507D5D5F88800216C27
:1009E00020F440100843C5F888002078400607D559
:1009F000D5F88800216B20F440500843C5F88800E2
:100A00002078000607D5D5F88800616B20F44040B7
:100A10000843C5F888002088C00507D5D5F88800A8
:100A2000A16B20F440300843C5F8880020684FF0DF
:100A3000006700034FF0806850D5D5F88800A16C9E
:100A400020F040600843C5F88800A06CB84200E080
:100A500005E03BD1E86840F48010E8603EE0D5F85E
:100A6000900010F4407014D0A16D814211D0D5F8DF
:100A70009000D5F8901020F4407041F48031C5F812
:100A80009010D5F8901021F48031C5F89010C5F879
:100A90009000C00711D0FFF737FE074641F28839B2
:100AA00007E000BFFFF730FEC11B494501D903260F
:100AB00052E7D5F890008007F4D5D5F89000A16DE5
:100AC00020F440700843C5F8900045E7404505D143
:100AD0000121201D00F0A2FF00B10646206840035E
:100AE00017D5D5F88800E16C20F040600843C5F8C0
:100AF0008800E06CB84204D1E86840F48010E860F7
:100B000007E0404505D10121201D00F087FF00B11D
:100B100006462088400411D5D5F88800216D20F0C4
:100B200040500843C5F88800206DB0F1805F05D1C2
:100B30000221201D00F072FF00B10646208800044B
:100B400006D555F8880F616D20F080400843286075
:100B5000304600F005B80000001002400070004070
:100B600018BCBDE8E08F00002DE9F0470F460500F6
:100B700058D0404E306800F00700B84209D23068C3
:100B800020F0070038433060306800F00700B842BA
:100B900048D12878384CC0072CD06868032811D079
:100BA000022812D0216898B1490500293ADAA168D3
:100BB00021F003010143A160FFF7A6FD804641F249
:100BC000883910E021688901EFE721688903ECE7A3
:100BD0008907EAE7FFF798FDA0EB0801494502D92C
:100BE0000320BDE8F087A068696800F00C00B0EB56
:100BF000810FEFD12878800705D5A068A96820F07B
:100C0000F0000843A060306800F00700B8420BD93C
:100C1000306820F0070038433060306800F007008B
:100C2000B84201D00120DCE72878400705D5A0684C
:100C3000E96820F4E0600843A0602878000706D542
:100C4000A068296920F4605040EAC100A06000F06B
:100C50003FF8A168094AC1F30311515C01F01F017B
:100C6000C8400749086007480068BDE8F047FFF73B
:100C700069BD000000200240001002406C22000804
:100C8000100000200400002005480649006889681B
:100C9000054AC1F30221515C01F01F01C8407047B1
:100CA0001000002000100240AC2200080548064950
:100CB00000688968054AC1F3C221515C01F01F0137
:100CC000C84070471000002000100240AC2200080D
:100CD00070B52549002318468A68CC6812F00C02CA
:100CE00004F00306214C4FEA640509D00C2A05D014
:100CF000042A32D0082A00D1284670BD012E10D116
:100D00000B681B0704D4D1F89430C3F3032302E02B
:100D10000B68C3F30313164E56F82330DAB10C2ACE
:100D2000EBD1C86800F00300022818D0032818D0BF
:100D30001846CA68CB68C2F30212C3F306234343C2
:100D4000521CB3FBF2F2C868C0F34160401C400083
:100D5000B2FBF0F070BD184670BD204670BD204655
:100D6000E7E72846E5E70000001002400024F40011
:100D70007C2200082DE9F84304006ED0FD4DA868E0
:100D800000F00C06E86800F003072078C00663D581
:100D900076B10C2E01D1012F0AD0A0690028286855
:100DA00078D040F001002860FFF7AEFC80465BE0A1
:100DB0002868800702D5A0690028DED0216A28684B
:100DC000000703D5286800F0F00004E0D5F894008F
:100DD000F02202EA1010814216D9084600F0B4FE53
:100DE00000283AD1286840F0080028602868216A65
:100DF00020F0F000084328606868E16920F47F4033
:100E000040EA0120686015E0286840F0080028608A
:100E10002868216A20F0F000084328606868E169CA
:100E200020F47F4040EA01206860206A00F08CFED8
:100E30000028D6D1FFF74CFFA968CF4AC1F30311B0
:100E4000515C01F01F01C840CC490860CC480068E3
:100E5000FFF778FC00287DD12DE0C9E0FFF754FCB6
:100E6000A0EB0800022876D828688007F6D5286805
:100E700040F0080028602868216A20F0F00008434C
:100E800028606868E16920F47F4040EA01206860DA
:100E900011E0FFE720F001002860FFF735FC8046F5
:100EA00006E000BFFFF730FCA0EB08000228DAD80C
:100EB00028688007F6D42078C00740D0082E18D0C4
:100EC0000C2E01D1032F14D06068B0F5803F17D0ED
:100ED000B0F5A02F286817D020F48030286028684B
:100EE00020F4802028606068E0B1FFF70DFC8046A8
:100EF00014E02868800322D56068002878D01EE0BE
:100F0000286840F48030EDE740F480202860F7E75F
:100F1000FFF7FAFBA0EB08006428A4D82868800338
:100F2000F6D50CE0FFF7F0FB804605E0FFF7ECFBA1
:100F3000A0EB0800642896D828688003F6D42078AF
:100F400080073BD5042E11D00C2E01D1022F0DD0DD
:100F5000E06801E064E1B8E0002828681ED040F4B1
:100F600080702860FFF7D0FB07460CE0286840053A
:100F70000CD5E0680028C1D008E000BFFFF7C4FB33
:100F8000C01B022893D828684005F7D56868217CE3
:100F900020F0F85040EA016068600FE020F48070B3
:100FA0002860FFF7B1FB074605E000BFFFF7ACFB89
:100FB000C01B0228B1D828684005F7D42078000764
:100FC00029D560690028D5F8940012D040F00100BE
:100FD000C5F89400FFF798FB074604E0FFF794FB81
:100FE000C01B022871D8D5F894008007F6D512E00E
:100FF0004CE120F00100C5F89400FFF785FB07469F
:1010000005E000BFFFF780FBC01B02285DD8D5F8C4
:1010100094008007F6D42078400766D5A86D002795
:10102000C00008D4A86D40F08050A865A86D0127C5
:1010300000F08050009053480168C90512D401683F
:10104000814641F480710160FFF75EFB804605E058
:10105000FFF75AFBA0EB0800022836D8D9F80000A9
:10106000C005F5D5A068012816D00528D5F8900050
:1010700017D020F00100C5F89000D5F8900020F0BE
:10108000040000BFC5F89000A06841F28839C0B1E3
:10109000FFF73AFB80460FE0D5F8900040F00100E2
:1010A000F0E740F00400C5F89000F5E7FFF72CFBEF
:1010B000A0EB0801494508D8D5F890008007F5D580
:1010C0000EE0FFF721FB804606E07CE0FFF71CFB0B
:1010D000A0EB0801494576D8D5F890008007F5D4F3
:1010E0001FB1A86D20F08050A8652078800628D513
:1010F000606A0028D5F8980012D040F00100C5F8C9
:101100009800FFF701FB074605E000BFFFF7FCFA78
:10111000C01B022857D8D5F898008007F6D510E0F4
:1011200020F00100C5F89800FFF7EEFA074604E04A
:10113000FFF7EAFAC01B022871D8D5F8980080079B
:10114000F6D4A06AF0B30C2E71D00228286820F0E3
:10115000807028601AD02868000103D4E86820F065
:101160000300E860E86808490840E860FFF7CCFA47
:10117000044657E0001002406C22000810000020D6
:101180000400002000700040FFFFEEFEFFF7BCFAF5
:10119000064604E0FFF7B8FA801B02283FD828680B
:1011A0008001F7D4F4E90B016FF00F0202EB01119B
:1011B0000843218A4908520402EB4151A26841EADE
:1011C000022101E064E02AE00843217D4FF07E42E5
:1011D000490802EB41610843217B40EAC160E968AC
:1011E0002C4A11400843E860286840F0807028606D
:1011F000E86840F08070E860FFF786FA044604E093
:10120000FFF782FA001B022809D828688001F7D569
:101210003EE000BFFFF778FA001B022802D9032046
:10122000BDE8F88328688001F4D431E0FFE70128A5
:10123000F6D0E868E26A00F00301914226D1216B02
:1012400000F070020901103991421FD1626B00F465
:10125000FE41B1EB022F19D194F8382000F078410B
:10126000B1EBC26F12D1A18F00F4C0024908490549
:10127000A1F50011914209D194F8401000F0C0602E
:1012800049084906A1F10071814201D00120C7E758
:101290000020C5E78C809D012DE9F041040005D0B8
:1012A0000025A56294F85D0018B107E00120BDE8B3
:1012B000F08184F85C50204600F044F8022384F862
:1012C0005D302068016821F040010160E0684FF462
:1012D000E066B04201D9002101E04FF48051B0F541
:1012E000706F02D0B04200D0A562276B012227B9EF
:1012F000B04201D9236300E02263D4E9010318431B
:10130000D4E9043633431843238B03F400731843A2
:10131000E3691843236A1843A36A184323681860D3
:10132000636B606AA66918430427E36807EA1646F8
:1013300033431843084321684860256684F85D20DC
:101340000020B4E710B586B0044614216846FEF7C5
:1013500074FF1349206888421FD11248016E41F47E
:1013600080510166016E01F480510591C16C41F01C
:101370000101C164C06C694600F001000590C22003
:10138000009002200190002002900320039005208D
:1013900004904FF09040FFF7E3F806B010BD000056
:1013A000003001400010024010B5401EB0F1807FB7
:1013B00001D3012010BD4FF0E02460610F216017C0
:1013C00000F0BAFE0020A06107202061002010BDBF
:1013D000704770472DE9F04102680446D0691168F2
:1013E000936810F00F0F4FF000055BD003F001067B
:1013F00001F49077374369D0C70707D0CF0505D5EB
:1014000001271762E26F42F00102E267820708D506
:10141000DA0706D0276802223A62E26F42F004023D
:10142000E267420708D5DA0706D0236804221A6269
:10143000E26F42F00202E26702070AD501F02002E1
:10144000324306D0236808221A62E26F42F0080293
:10145000E267E26F002A32D0800605D5880603D500
:10146000216E09B120468847E06F216889684906E6
:1014700001D4000725D5204600F0DDFC20688168F6
:10148000490619D5816821F040018160E06E98B16C
:1014900020498163E06EFEF734FF00280FD0E06E34
:1014A000816B06E0860611D58E060FD5216E1EE0F3
:1014B0002046BDE8F04108472046FFF78AFFBDE817
:1014C000F0812046FFF785FFE567F8E7C60209D5FA
:1014D0005B0207D54FF4801010622046BDE8F04152
:1014E000FFF776BF030605D50B0603D5616E00290D
:1014F000DED1E4E74006E2D54806E0D51168204693
:1015000021F04001116020216167656600F0AFF9AC
:10151000D5E70000951D000810B5040002D0606FEB
:1015200010B107E0012010BD002084F870002046B3
:1015300000F026F8242060672068016821F001018E
:101540000160204600F08EFC0128ECD0606A10B1EA
:10155000204600F08FFB2068416821F490414160F3
:101560002068816821F02A0181602068016841F0CB
:10157000010101602046BDE8104000F0DFBB000023
:101580002DE9F04186B0064614216846FEF755FE67
:101590004C4A37684C48032100240225974218D151
:1015A000C26D42F00102C265C26D02F001020592F5
:1015B000C26C42F00402C264C06C029400F00400E9
:1015C0000590CDE900150820CDE9031069463F4894
:1015D00074E0DFF8FCC007234FF09042674552D11A
:1015E000076E47F480470766076E07F48047059744
:1015F000C76C47F00107C764C06C029400F001009B
:101600000590CDE903134FF4C060CDE900056946AC
:101610001046FEF7A5FF304F2E484FF08008386087
:10162000C7E90154C7E9034820207C61C7E90640A7
:1016300038463C62FEF7EAFE08B1FEF761FEF76647
:10164000BE62254F234848371438E7E802051020CA
:10165000A7E81101204847F814494830BC61FC61F3
:101660003C62FEF7D3FE08B1FEF74AFEB7660022E1
:1016700011462520BE62FFF7ABF82520FFF79AF848
:1016800006B0BDE8F081154EB742F9D1866D46F43B
:1016900000368665866D06F400360596C66C46F003
:1016A0000106C664C06C029400F001000590CDE90B
:1016B00003130C20CDE9000569461046FEF750FFE4
:1016C000DEE70000008000400010024000080048F3
:1016D0000038014058000240A005002000440040AE
:1016E00070B50446806F20283FD149B342B394F8C7
:1016F0007000012839D0012084F870006165A4F8D9
:1017000058200025E5672220A067E06ED0B1184977
:10171000C162E16E174813460863E16E16484863DC
:10172000E06E8563666D216832462431E06EFEF717
:10173000CDFE38B11020E06784F87050202060673B
:10174000012070BD84F870502068016841F48071F8
:1017500001602068816841F0010181602068816832
:1017600041F040018160002070BD022070BD00008A
:10177000F11D00082D1E0008A91D000810B501224A
:1017800008490948FFF7ACFF0648007800F056FD0D
:101790004FF400510548FEF7AAFFBDE8104004A031
:1017A00000F0C2BC00000020A00400200008004897
:1017B0004675636B750D0A0070472DE9F8430446C2
:1017C000406F1F4616460D4620284ED1CDB1C6B1FA
:1017D00094F87000012848D0012084F870004FF080
:1017E0000008C4F87C8021206067FEF78DFFA4F814
:1017F00050608146A4F85260A068B0F5805F03D0C5
:1018000004E00120BDE8F883206910B12E460025D0
:1018100010E000260EE08021204600F04DFCB8B913
:10182000C6B116F8010B21680885B4F85200401EB5
:10183000A4F85200B4F852004B464FF00002009753
:101840000028E8D14FF04001204600F035FC30B1CF
:101850000320D7E735F8020BC0F30800E3E72020A8
:10186000606784F870800020CCE70220CAE77047E8
:10187000FEE700000D4808B5816C41F0010181646C
:10188000806C002200F00100009011460E20FEF74F
:101890009FFF0E20FEF78EFF002211460F20FEF75D
:1018A00097FFBDE808400F20FEF784BF00100240FC
:1018B00030B587B014216846FEF7BFFC1248C16CF2
:1018C00041F00401C164C16C01F004010591C16CD7
:1018D00041F00101C164C06C0C4D00F001004FF4F7
:1018E00000540590002221462846FEF707FF0120FC
:1018F00000210094CDE90101039169462846FEF7D5
:101900002FFE07B030BD0000001002400008004864
:101910000D4810B50B4901604FF4E13141600021E1
:1019200081600C22C160C0E90412816101624162E0
:10193000FFF7F2FD002803D0BDE81040FEF7E0BC41
:1019400010BD00000080004020040020124810B5A7
:10195000104901604FF48271416000214FF44072E0
:10196000C0E902124FF400720161C0E90512C161C1
:10197000016207224162C0E90A1201630821416342
:10198000FFF78AFC002803D0BDE81040FEF7B8BC82
:1019900010BD000000300140300600200D4810B599
:1019A0000B4901604FF4E1314160002181600C225C
:1019B000C160C0E904128161C16101624162FFF747
:1019C000ABFD002803D0BDE81040FEF799BC10BD68
:1019D00000380140A00400200D4810B50B490160FB
:1019E0004FF4E1314160002181600C22C160C0E907
:1019F00004128161C16101624162FFF78DFD00281F
:101A000003D0BDE81040FEF77BBC10BD0044004091
:101A100020050020FEE77047704700002DE9F041E7
:101A2000444C05468846E0680026810728680DD0AA
:101A3000E16801F00301814216D1A8B1E06869684C
:101A4000C0F30210401C88420ED120E0012804D0CF
:101A5000022805D0032807D108E02168890701E0A2
:101A600021684905002907DB01265FE02168890319
:101A700002D421684903F5E7E1686A686FF00F0353
:101A800021F0730103EB021211430143E16020686E
:101A900020F080602060FEF737FE074605E000BFBB
:101AA000FEF732FEC01B022837D820680001F7D4A9
:101AB000B8F1000F18D0B8F1010F1DD0287D4FF0FC
:101AC0007E41400801EB4060A96840EA012021699D
:101AD000194A114008432061206840F0806020606E
:101AE000FEF712FE07461AE0A868297B000240EACA
:101AF000C1602169114AECE7288A1149400801EBCD
:101B00004050A96840EA012021690E4AE1E700BF80
:101B1000FEF7FAFDC01B022801D9032606E0206863
:101B20000001F5D52069A969084320613046BDE868
:101B3000F081000000100240FF80FFF9FF80FF07E6
:101B40000000E0FFFF809FFFF8B51C4D0646002413
:101B5000A86DC00002D5FEF7A1FE0DE0A86D40F013
:101B60008050A865A86D00F080500090FEF796FEAA
:101B7000A96D21F08051A965B0F5007F04D0802EB9
:101B800007D94FF003040AE0802E08D9A02E01D80F
:101B900004E001D1022402E0702E00D101240848A3
:101BA000016821F0070121430160006800F007008F
:101BB000A04201D00120F8BD0020F8BD0010024075
:101BC000002002407047FEF7A5BD10B5AEB044211D
:101BD00017A8FEF732FB142128A8FEF72EFB5C2184
:101BE0006846FEF72AFB1020179001200024CDE95B
:101BF0001D0460201F90219417A8FFF7BBF80F2049
:101C0000CDE928042A942B94002128A82C94FEF7CF
:101C1000ABFF23200090089409940B946846FEF7CC
:101C200045FE4FF40070FEF705FE2EB010BD00001B
:101C30000D48016841F4700101600C48016841F0F1
:101C400001010160002181600268094B1A400260B5
:101C50008214C260026822F480220260816102491B
:101C6000C00380390860704788ED00E00010024032
:101C7000FFFFF6EA90F82410C90706D001684A6809
:101C8000836A22F400321A434A6090F824108907CC
:101C900006D501684A68C36A22F480321A434A6052
:101CA00090F82410490706D501684A68036B22F4AE
:101CB00080221A434A6090F82410090706D501686B
:101CC0004A68436B22F400421A434A6090F8241099
:101CD000C90606D501688A68836B22F480521A43CC
:101CE0008A6090F82410890606D501688A68C36B5B
:101CF00022F400521A438A6090F82410490611D544
:101D000001684A68036C22F480121A434A60016C2D
:101D1000B1F5801F06D101684A68436C22F4C00205
:101D20001A434A6090F82410090606D501684A68EB
:101D3000806C22F4002202434A607047F8B5002606
:101D40000446C667FEF7E0FC0546206800686FF0B1
:101D50007E47000708D52B4600224FF4001120468D
:101D6000009700F0A9F960B92068006840070AD51B
:101D70002B4600224FF480012046009700F09CF98A
:101D800008B10320F8BD20206067A06784F8706068
:101D90000020F8BD10B5806A0021A0F85A10A0F804
:101DA0005210FFF716FB10BD70B5846A606FA56F07
:101DB000216889684FF00006090606D5212804D15C
:101DC000A4F85260204600F045F82068806840067C
:101DD00006D5222D04D1A4F85A60204600F02BF835
:101DE000E06F40F01000E0672046FFF7F2FA70BDA8
:101DF00010B50146806A09680968890613D4002174
:101E0000A0F85A1001680A6822F480720A6001681A
:101E10008A6822F001028A6001688A6822F0400222
:101E20008A6020218167FFF7A9FC10BD10B5806A88
:101E3000FFF7C2FC10BD01680A6822F490720A60C4
:101E400001688A6822F001028A60202181670021EE
:101E50000166704701680A6822F0C0020A6020210A
:101E6000416770472DE9F0410446036881680069C5
:101E7000E56901436069002728430143844A1868E3
:101E8000844D28400843186020684168E36821F4C5
:101E90004051194341602168A069914201D0236AF1
:101EA00018438B6823F4306303438B607A4B2168BB
:101EB0007A4899420DD1D0F8880010F0030006D07E
:101EC000012847D0022843D0032830D144E001251F
:101ED0002EE0734B99420BD1D0F8880010F00C0023
:101EE00034D0042836D0082832D00C281FD133E053
:101EF0006C4B99420BD1D0F8880010F0300025D0FF
:101F0000102827D0202823D0302810D124E0914257
:101F10000DD1D0F8880010F4406017D0B0F5806F74
:101F200018D0B0F5006F13D0B0F5406F14D0102565
:101F30005D4B00264FF40040914245D175B1022D12
:101F40000FD0042D0FD0082D18D10FE00025EFE79A
:101F50000225EDE70425EBE70825E9E7FEF794FE07
:101F600003E0184602E0FEF7B3FEA8B3626802EB96
:101F70004201814202D8B0EB023F01D9012774E04F
:101F8000DFF828815DB1022D0CD0042D13D0082D6F
:101F9000F4D150082905401846F1000105E0FEF78C
:101FA00073FE0AE050084249F5E70023FEF70AF9FC
:101FB000A0F5407155E0FEF78BFE6268010E03024A
:101FC000500818187141F0E7E1694FF6EF78814247
:101FD0002ED1092DD2D200E047E0DFE805F0060956
:101FE0001F05220505052500C8E7FEF74DFE01E0A7
:101FF000FEF75CFE4100606801EB5001B1FBF0F0C0
:1020000080B2A0F110014145B8D84FF6F0710140FF
:10201000C0F3420001432068C16026E025496068A2
:10202000EAE7FEF755FEE5E74FF480316068E3E745
:10203000092DA3D2DFE805F006091E0522050505D6
:1020400025009BE7FEF720FE01E0FEF72FFE01468C
:10205000606801EB500100BFB1FBF0F080B2A0F16D
:10206000100141458AD82168C860266638466666F0
:10207000BDE8F081606803EB5001EDE7FEF728FE54
:10208000E5E7616800EB5100B0FBF1F0E6E7000026
:1020900000800040F369FFEF00380140001002406B
:1020A00000440040004800400024F400FFFC0F0002
:1020B000000024F40048E8012DE9F0419846174655
:1020C0000E460446069D08E0681C06D0FEF71CFB81
:1020D000A0EB0800A8420BD855B12068C06936EAC9
:1020E000000017D00020B842EED00020BDE8F081FB
:1020F0002068016821F4D07101602068816821F0B6
:102100000101816020206067A067002084F87000D2
:102110000320EBE70120E6E70148FFF75BB9000089
:10212000A0040020FEE70000014A024900F023B8A5
:1021300099210008140000200907090E002804DB7B
:1021400000F1E02080F80014704700F00F0000F16B
:10215000E02080F8141D704702E008C8121F08C173
:10216000002AFAD170477047002001E001C1121F18
:10217000002AFBD170472DE9F04116460F46044670
:10218000002503E03946B047641C6D1C2078002808
:10219000F8D12846BDE8F08108B5FF238DF800008E
:1021A000012269460248FFF708FB002008BD000035
:1021B000A0040020FEF7B6FAFFF707FDFFF778FB53
:1021C000FFF758FBFFF7A4FBFFF7E8FBFFF704FC62
:1021D000FFF7BCFB01220F490F48FFF781FA0F4FB1
:1021E0000F4D4FF4005641F2883831463846FEF71D
:1021F0007EFA0CA0FFF798FF002403E00EA0FFF783
:1022000093FF641CA888A042F8DC4046FEF796F9CC
:10221000EBE7000000000020A004002000080048B8
:102220001800002055415254315F444D41205465FF
:102230007374210D0A000000707000000A498A883A
:10224000B2F5806F01D300207047074A4B88921D7A
:1022500098544888401CC0F3090048808888401C76
:102260008880012070470000180000200000000056
:10227000000000000102030406070809A08601000F
:10228000400D0300801A060000350C0040420F008C
:1022900080841E0000093D0000127A000024F40032
:1022A00000366E010048E801006CDC02000000000E
:1022B00001020304D42200080000002018000000DE
:1022C00058210008EC22000818000020800A0000B5
:1022D000682100080000000010000000010000005C
:0C22E0000000000000093D0000000000AC
:040000050800018D61
:00000001FF
